{"contracts/Reward.sol":{"Reward":{"abi":[{"inputs":[],"stateMutability":"nonpayable","type":"constructor"},{"anonymous":false,"inputs":[{"indexed":true,"internalType":"address","name":"owner","type":"address"},{"indexed":true,"internalType":"address","name":"spender","type":"address"},{"indexed":false,"internalType":"uint256","name":"value","type":"uint256"}],"name":"Approval","type":"event"},{"anonymous":false,"inputs":[{"indexed":true,"internalType":"address","name":"previousOwner","type":"address"},{"indexed":true,"internalType":"address","name":"newOwner","type":"address"}],"name":"OwnershipTransferred","type":"event"},{"anonymous":false,"inputs":[{"indexed":true,"internalType":"address","name":"from","type":"address"},{"indexed":true,"internalType":"address","name":"to","type":"address"},{"indexed":false,"internalType":"uint256","name":"value","type":"uint256"}],"name":"Transfer","type":"event"},{"inputs":[{"internalType":"address","name":"owner","type":"address"},{"internalType":"address","name":"spender","type":"address"}],"name":"allowance","outputs":[{"internalType":"uint256","name":"","type":"uint256"}],"stateMutability":"view","type":"function"},{"inputs":[{"internalType":"address","name":"spender","type":"address"},{"internalType":"uint256","name":"amount","type":"uint256"}],"name":"approve","outputs":[{"internalType":"bool","name":"","type":"bool"}],"stateMutability":"nonpayable","type":"function"},{"inputs":[{"internalType":"address","name":"account","type":"address"}],"name":"balanceOf","outputs":[{"internalType":"uint256","name":"","type":"uint256"}],"stateMutability":"view","type":"function"},{"inputs":[],"name":"decimals","outputs":[{"internalType":"uint8","name":"","type":"uint8"}],"stateMutability":"view","type":"function"},{"inputs":[{"internalType":"address","name":"spender","type":"address"},{"internalType":"uint256","name":"subtractedValue","type":"uint256"}],"name":"decreaseAllowance","outputs":[{"internalType":"bool","name":"","type":"bool"}],"stateMutability":"nonpayable","type":"function"},{"inputs":[{"internalType":"address","name":"_address","type":"address"}],"name":"getBalance","outputs":[{"internalType":"uint256","name":"","type":"uint256"}],"stateMutability":"view","type":"function"},{"inputs":[{"internalType":"address","name":"spender","type":"address"},{"internalType":"uint256","name":"addedValue","type":"uint256"}],"name":"increaseAllowance","outputs":[{"internalType":"bool","name":"","type":"bool"}],"stateMutability":"nonpayable","type":"function"},{"inputs":[{"internalType":"address","name":"to","type":"address"},{"internalType":"uint256","name":"amount","type":"uint256"}],"name":"mint","outputs":[],"stateMutability":"nonpayable","type":"function"},{"inputs":[],"name":"name","outputs":[{"internalType":"string","name":"","type":"string"}],"stateMutability":"view","type":"function"},{"inputs":[],"name":"owner","outputs":[{"internalType":"address","name":"","type":"address"}],"stateMutability":"view","type":"function"},{"inputs":[],"name":"renounceOwnership","outputs":[],"stateMutability":"nonpayable","type":"function"},{"inputs":[],"name":"symbol","outputs":[{"internalType":"string","name":"","type":"string"}],"stateMutability":"view","type":"function"},{"inputs":[],"name":"totalSupply","outputs":[{"internalType":"uint256","name":"","type":"uint256"}],"stateMutability":"view","type":"function"},{"inputs":[{"internalType":"address","name":"to","type":"address"},{"internalType":"uint256","name":"amount","type":"uint256"}],"name":"transfer","outputs":[{"internalType":"bool","name":"","type":"bool"}],"stateMutability":"nonpayable","type":"function"},{"inputs":[{"internalType":"address","name":"from","type":"address"},{"internalType":"address","name":"to","type":"address"},{"internalType":"uint256","name":"amount","type":"uint256"}],"name":"transferFrom","outputs":[{"internalType":"bool","name":"","type":"bool"}],"stateMutability":"nonpayable","type":"function"},{"inputs":[{"internalType":"address","name":"newOwner","type":"address"}],"name":"transferOwnership","outputs":[],"stateMutability":"nonpayable","type":"function"},{"inputs":[{"internalType":"address","name":"_to","type":"address"},{"internalType":"uint256","name":"amount","type":"uint256"}],"name":"transferTokens","outputs":[{"internalType":"uint256","name":"","type":"uint256"}],"stateMutability":"nonpayable","type":"function"}],"evm":{"bytecode":{"linkReferences":{},"object":"608060405234156200001057600080fd5b6200001a6200016a565b6020670845a90cac2d8e8d60c31b81830152620000366200019d565b6210921560ea1b8183015282516001600160401b038111156200005d576200005d62000154565b62000075816200006f600354620001d0565b6200020d565b82601f821160018114620000ac5760008315620000925750858201515b8360011b6000198560031b1c198216176003555062000127565b6003600052601f1983167fc2575a0e9e593c00f959f8c92f12db2869c3395a3b0502d05e2516446f71f85b60005b82811015620000fb57888501518255938701936001909101908701620000da565b50848210156200011a5787840151600019600387901b60f8161c191681555b505060018360011b016003555b5050506200013581620002e3565b5050506200014333620003cf565b604051610de7806200041b83398082f35b634e487b7160e01b600052604160045260246000fd5b6040805160009181016001600160401b038111828210171562000191576200019162000154565b60405260088152919050565b6040805160009181016001600160401b0381118282101715620001c457620001c462000154565b60405260038152919050565b600181811c90821680620001e557607f821691505b602082108114156200020757634e487b7160e01b600052602260045260246000fd5b50919050565b601f8111156200027a57600360009081527fc2575a0e9e593c00f959f8c92f12db2869c3395a3b0502d05e2516446f71f85b601f840160051c81016020851015620002555750805b601f840160051c820191505b81811015620002765782815560010162000261565b5050505b5050565b601f8111156200027a57600460009081527f8a35acfbc15ff81a39ae7d344fd709f28e8600b4aa8c65c6b64bfe7fe36bd19b601f840160051c81016020851015620002555750601f830160051c81019081811015620002765782815560010162000261565b80516001600160401b03811115620002ff57620002ff62000154565b620003178162000311600454620001d0565b6200027e565b602080601f831160018114620003505760008415620003365750848301515b600019600386901b1c1916600185901b1760045562000276565b6004600052601f1984167f8a35acfbc15ff81a39ae7d344fd709f28e8600b4aa8c65c6b64bfe7fe36bd19b60005b828110156200039f578786015182559484019460019091019084016200037e565b5085821015620003be5786850151600019600388901b60f8161c191681555b5050505050600190811b0160045550565b60055460018060a01b0380831660018060a01b0319831617600555828183167f8be0079c531659141344cd1fd0a4f28419497f9722a3daafe3b4186f6b6457e06000604051a350505056fe60406080815260043610610361576000803560e01c6306fdde0381146100d45763095ea7b38114610100576318160ddd8114610133576323b872dd81146101535763313ce567811461018857633950935181146101a6576340c10f1981146101c3576370a0823181146101e75763715018a6811461022257638da5cb5b8114610242576395d89b41811461026e5763a457c2d781146102895763a9059cbb81146102a65763bec3fa1781146102c35763dd62ed3e81146102f45763f2fde38b81146103435763f8b2cb4f81146101e75761035e565b34156100de578182fd5b6100e736610367565b6100ef61066f565b8351806100fc838361037c565b0381f35b341561010a578182fd5b610113366103d1565b61011d8183610808565b9150508351806100fc8383901515815260200190565b341561013d578182fd5b61014636610367565b6002548351818152602081f35b341561015d578182fd5b61016636610409565b610171818385610813565b925050508351806100fc8383901515815260200190565b3415610192578182fd5b61019b36610367565b825160128152602081f35b34156101b0578182fd5b6101b9366103d1565b61011d81836108de565b34156101cd578182fd5b6101d6366103d1565b6101e08183610c12565b5050818351f35b34156101f1578182fd5b6102186101fd3661045c565b6001600160a01b031660009081526020819052604090205490565b8351818152602081f35b341561022c578182fd5b61023536610367565b61023d6104da565b818351f35b341561024c578182fd5b61025536610367565b60055483516001600160a01b0390911680825290602081f35b3415610278578182fd5b61028136610367565b6100ef610739565b3415610293578182fd5b61029c366103d1565b61011d8183610909565b34156102b0578182fd5b6102b9366103d1565b61011d81836107f5565b34156102cd578182fd5b6102d6366103d1565b6102e08183610cac565b9150508351806100fc838390815260200190565b34156102fe578182fd5b6103073661048e565b61032e81610329846001600160a01b0316600090815260016020526040902090565b6107d7565b549150508351806100fc838390815260200190565b341561034d578182fd5b61023d6103593661045c565b610585565b50505b50600080fd5b60006003198201121561037957600080fd5b50565b600060208083528351808285015260005b818110156103a95785810183015185820160400152820161038d565b818111156103bb576000604083870101525b50601f01601f1916929092016040019392505050565b6000806040600319840112156103e657600080fd5b6004356001600160a01b03811681146103fe57600080fd5b936024359350915050565b6000808060606003198501121561041f57600080fd5b6004356001600160a01b03808216821461043857600080fd5b90935060243590808216821461044d57600080fd5b50929492935050604435919050565b600060206003198301121561047057600080fd5b6004356001600160a01b038116811461048857600080fd5b92915050565b6000806040600319840112156104a357600080fd5b6004356001600160a01b0380821682146104bc57600080fd5b9092506024359080821682146104d157600080fd5b50919391925050565b6104e261052d565b600580546001600160a01b031981169091556040516000906001600160a01b038316907f8be0079c531659141344cd1fd0a4f28419497f9722a3daafe3b4186f6b6457e0908390a350565b6005546001600160a01b03163381146103795760405162461bcd60e51b815260206004820181905260248201527f4f776e61626c653a2063616c6c6572206973206e6f7420746865206f776e65726044820152606481fd5b61058d61052d565b6001600160a01b03818116806105f15760405162461bcd60e51b815260206004820152602660248201527f4f776e61626c653a206e6577206f776e657220697320746865207a65726f206160448201526564647265737360d01b6064820152608481fd5b6005548160018060a01b0319821617600555838382167f8be0079c531659141344cd1fd0a4f28419497f9722a3daafe3b4186f6b6457e06000604051a350505050565b601f8201601f1916810167ffffffffffffffff8111828210171561066857634e487b7160e01b600052604160045260246000fd5b6040525050565b604051600354600090600181811c908083168061068d57607f831692505b60208084108214156106ad57634e487b7160e01b86526022600452602486fd5b838752602087018280156106c857600181146106d957610722565b60ff19871682528282019750610722565b60036000527fc2575a0e9e593c00f959f8c92f12db2869c3395a3b0502d05e2516446f71f85b5b60005b8781101561071c57815484820152908601908401610703565b83019850505b5050505050505061073582820383610634565b5090565b604051600454600090600181811c908083168061075757607f831692505b602080841082141561077757634e487b7160e01b86526022600452602486fd5b838752602087018280156106c8576001811461079257610722565b60046000527f8a35acfbc15ff81a39ae7d344fd709f28e8600b4aa8c65c6b64bfe7fe36bd19b610700565b6001600160a01b0316600090815260208190526040902090565b6001600160a01b039190911660009081526020919091526040902090565b610800828233610a3a565b506001919050565b610800828233610b03565b6001600160a01b03811660009081526001602052604081206108369033906107d7565b54600019811461089a578481101561088d5760405162461bcd60e51b815260206004820152601d60248201527f45524332303a20696e73756666696369656e7420616c6c6f77616e63650000006044820152606481fd5b61089a8582033385610b03565b506108a6848484610a3a565b5060019392505050565b634e487b7160e01b600052601160045260246000fd5b600082198211156108d9576108d96108b0565b500190565b336000526001602052610800610902836108fc8460406000206107d7565b546108c6565b8233610b03565b33600052600160205260006109228260406000206107d7565b548381101561097e5760405162461bcd60e51b815260206004820152602560248201527f45524332303a2064656372656173656420616c6c6f77616e63652062656c6f77604482015264207a65726f60d81b6064820152608481fd5b6108a68482038433610b03565b806103795760405162461bcd60e51b815260206004820152602360248201527f45524332303a207472616e7366657220746f20746865207a65726f206164647260448201526265737360e81b6064820152608481fd5b806103795760405162461bcd60e51b815260206004820152602660248201527f45524332303a207472616e7366657220616d6f756e7420657863656564732062604482015265616c616e636560d01b6064820152608481fd5b6001600160a01b03818116610a9c5760405162461bcd60e51b815260206004820152602560248201527f45524332303a207472616e736665722066726f6d20746865207a65726f206164604482015264647265737360d81b6064820152608481fd5b610aa9818416151561098b565b50610ab3816107bd565b54610ac0848210156109e1565b838103610acc836107bd565b5550610ad7826107bd565b8054840190556040518381528282600080516020610d8483398151915283602081015b0384a350505050565b6001600160a01b03818116610b635760405162461bcd60e51b8152602060048201526024808201527f45524332303a20617070726f76652066726f6d20746865207a65726f206164646044820152637265737360e01b6064820152608481fd5b808316610bba5760405162461bcd60e51b815260206004820152602260248201527f45524332303a20617070726f766520746f20746865207a65726f206164647265604482015261737360f01b6064820152608481fd5b5082610bde83610329846001600160a01b0316600090815260016020526040902090565b5560405183815282827f8c5be1e5ebec7d5bd14f71427d1e84f3dd0314c0f7b2291e5b200ac8c7c3b9258360208101610afa565b610c1a61052d565b6001600160a01b038116610c6d5760405162461bcd60e51b815260206004820152601f60248201527f45524332303a206d696e7420746f20746865207a65726f2061646472657373006044820152606481fd5b610c79826002546108c6565b600255610c85816107bd565b805483019055604051828152816000600080516020610d84833981519152602084a3505050565b336000526000602052600060406000205483811015610d705780841015610cd557610cd56108b0565b808403610ce061052d565b6001600160a01b038416610d335760405162461bcd60e51b815260206004820152601f60248201527f45524332303a206d696e7420746f20746865207a65726f2061646472657373006044820152606481fd5b610d3f816002546108c6565b600255610d4b846107bd565b805482019055604051818152846000600080516020610d84833981519152602084a350505b50610d7c838333610a3a565b509091905056feddf252ad1be2c89b69c2b068fc378daa952ba7f163c4a11628f55a4df523b3efa36469706673582212203c5621a316bd46f37c15f0a3e546293a23041eadce02a874ce3c89e32fce2b046c6578706572696d656e74616cf564736f6c63430008090041","opcodes":"PUSH1 0x80 PUSH1 0x40 MSTORE CALLVALUE ISZERO PUSH3 0x10 JUMPI PUSH1 0x0 DUP1 REVERT JUMPDEST PUSH3 0x1A PUSH3 0x16A JUMP JUMPDEST PUSH1 0x20 PUSH8 0x845A90CAC2D8E8D PUSH1 0xC3 SHL DUP2 DUP4 ADD MSTORE PUSH3 0x36 PUSH3 0x19D JUMP JUMPDEST PUSH3 0x109215 PUSH1 0xEA SHL DUP2 DUP4 ADD MSTORE DUP3 MLOAD PUSH1 0x1 PUSH1 0x1 PUSH1 0x40 SHL SUB DUP2 GT ISZERO PUSH3 0x5D JUMPI PUSH3 0x5D PUSH3 0x154 JUMP JUMPDEST PUSH3 0x75 DUP2 PUSH3 0x6F PUSH1 0x3 SLOAD PUSH3 0x1D0 JUMP JUMPDEST PUSH3 0x20D JUMP JUMPDEST DUP3 PUSH1 0x1F DUP3 GT PUSH1 0x1 DUP2 EQ PUSH3 0xAC JUMPI PUSH1 0x0 DUP4 ISZERO PUSH3 0x92 JUMPI POP DUP6 DUP3 ADD MLOAD JUMPDEST DUP4 PUSH1 0x1 SHL PUSH1 0x0 NOT DUP6 PUSH1 0x3 SHL SHR NOT DUP3 AND OR PUSH1 0x3 SSTORE POP PUSH3 0x127 JUMP JUMPDEST PUSH1 0x3 PUSH1 0x0 MSTORE PUSH1 0x1F NOT DUP4 AND PUSH32 0xC2575A0E9E593C00F959F8C92F12DB2869C3395A3B0502D05E2516446F71F85B PUSH1 0x0 JUMPDEST DUP3 DUP2 LT ISZERO PUSH3 0xFB JUMPI DUP9 DUP6 ADD MLOAD DUP3 SSTORE SWAP4 DUP8 ADD SWAP4 PUSH1 0x1 SWAP1 SWAP2 ADD SWAP1 DUP8 ADD PUSH3 0xDA JUMP JUMPDEST POP DUP5 DUP3 LT ISZERO PUSH3 0x11A JUMPI DUP8 DUP5 ADD MLOAD PUSH1 0x0 NOT PUSH1 0x3 DUP8 SWAP1 SHL PUSH1 0xF8 AND SHR NOT AND DUP2 SSTORE JUMPDEST POP POP PUSH1 0x1 DUP4 PUSH1 0x1 SHL ADD PUSH1 0x3 SSTORE JUMPDEST POP POP POP PUSH3 0x135 DUP2 PUSH3 0x2E3 JUMP JUMPDEST POP POP POP PUSH3 0x143 CALLER PUSH3 0x3CF JUMP JUMPDEST PUSH1 0x40 MLOAD PUSH2 0xDE7 DUP1 PUSH3 0x41B DUP4 CODECOPY DUP1 DUP3 RETURN JUMPDEST PUSH4 0x4E487B71 PUSH1 0xE0 SHL PUSH1 0x0 MSTORE PUSH1 0x41 PUSH1 0x4 MSTORE PUSH1 0x24 PUSH1 0x0 REVERT JUMPDEST PUSH1 0x40 DUP1 MLOAD PUSH1 0x0 SWAP2 DUP2 ADD PUSH1 0x1 PUSH1 0x1 PUSH1 0x40 SHL SUB DUP2 GT DUP3 DUP3 LT OR ISZERO PUSH3 0x191 JUMPI PUSH3 0x191 PUSH3 0x154 JUMP JUMPDEST PUSH1 0x40 MSTORE PUSH1 0x8 DUP2 MSTORE SWAP2 SWAP1 POP JUMP JUMPDEST PUSH1 0x40 DUP1 MLOAD PUSH1 0x0 SWAP2 DUP2 ADD PUSH1 0x1 PUSH1 0x1 PUSH1 0x40 SHL SUB DUP2 GT DUP3 DUP3 LT OR ISZERO PUSH3 0x1C4 JUMPI PUSH3 0x1C4 PUSH3 0x154 JUMP JUMPDEST PUSH1 0x40 MSTORE PUSH1 0x3 DUP2 MSTORE SWAP2 SWAP1 POP JUMP JUMPDEST PUSH1 0x1 DUP2 DUP2 SHR SWAP1 DUP3 AND DUP1 PUSH3 0x1E5 JUMPI PUSH1 0x7F DUP3 AND SWAP2 POP JUMPDEST PUSH1 0x20 DUP3 LT DUP2 EQ ISZERO PUSH3 0x207 JUMPI PUSH4 0x4E487B71 PUSH1 0xE0 SHL PUSH1 0x0 MSTORE PUSH1 0x22 PUSH1 0x4 MSTORE PUSH1 0x24 PUSH1 0x0 REVERT JUMPDEST POP SWAP2 SWAP1 POP JUMP JUMPDEST PUSH1 0x1F DUP2 GT ISZERO PUSH3 0x27A JUMPI PUSH1 0x3 PUSH1 0x0 SWAP1 DUP2 MSTORE PUSH32 0xC2575A0E9E593C00F959F8C92F12DB2869C3395A3B0502D05E2516446F71F85B PUSH1 0x1F DUP5 ADD PUSH1 0x5 SHR DUP2 ADD PUSH1 0x20 DUP6 LT ISZERO PUSH3 0x255 JUMPI POP DUP1 JUMPDEST PUSH1 0x1F DUP5 ADD PUSH1 0x5 SHR DUP3 ADD SWAP2 POP JUMPDEST DUP2 DUP2 LT ISZERO PUSH3 0x276 JUMPI DUP3 DUP2 SSTORE PUSH1 0x1 ADD PUSH3 0x261 JUMP JUMPDEST POP POP POP JUMPDEST POP POP JUMP JUMPDEST PUSH1 0x1F DUP2 GT ISZERO PUSH3 0x27A JUMPI PUSH1 0x4 PUSH1 0x0 SWAP1 DUP2 MSTORE PUSH32 0x8A35ACFBC15FF81A39AE7D344FD709F28E8600B4AA8C65C6B64BFE7FE36BD19B PUSH1 0x1F DUP5 ADD PUSH1 0x5 SHR DUP2 ADD PUSH1 0x20 DUP6 LT ISZERO PUSH3 0x255 JUMPI POP PUSH1 0x1F DUP4 ADD PUSH1 0x5 SHR DUP2 ADD SWAP1 DUP2 DUP2 LT ISZERO PUSH3 0x276 JUMPI DUP3 DUP2 SSTORE PUSH1 0x1 ADD PUSH3 0x261 JUMP JUMPDEST DUP1 MLOAD PUSH1 0x1 PUSH1 0x1 PUSH1 0x40 SHL SUB DUP2 GT ISZERO PUSH3 0x2FF JUMPI PUSH3 0x2FF PUSH3 0x154 JUMP JUMPDEST PUSH3 0x317 DUP2 PUSH3 0x311 PUSH1 0x4 SLOAD PUSH3 0x1D0 JUMP JUMPDEST PUSH3 0x27E JUMP JUMPDEST PUSH1 0x20 DUP1 PUSH1 0x1F DUP4 GT PUSH1 0x1 DUP2 EQ PUSH3 0x350 JUMPI PUSH1 0x0 DUP5 ISZERO PUSH3 0x336 JUMPI POP DUP5 DUP4 ADD MLOAD JUMPDEST PUSH1 0x0 NOT PUSH1 0x3 DUP7 SWAP1 SHL SHR NOT AND PUSH1 0x1 DUP6 SWAP1 SHL OR PUSH1 0x4 SSTORE PUSH3 0x276 JUMP JUMPDEST PUSH1 0x4 PUSH1 0x0 MSTORE PUSH1 0x1F NOT DUP5 AND PUSH32 0x8A35ACFBC15FF81A39AE7D344FD709F28E8600B4AA8C65C6B64BFE7FE36BD19B PUSH1 0x0 JUMPDEST DUP3 DUP2 LT ISZERO PUSH3 0x39F JUMPI DUP8 DUP7 ADD MLOAD DUP3 SSTORE SWAP5 DUP5 ADD SWAP5 PUSH1 0x1 SWAP1 SWAP2 ADD SWAP1 DUP5 ADD PUSH3 0x37E JUMP JUMPDEST POP DUP6 DUP3 LT ISZERO PUSH3 0x3BE JUMPI DUP7 DUP6 ADD MLOAD PUSH1 0x0 NOT PUSH1 0x3 DUP9 SWAP1 SHL PUSH1 0xF8 AND SHR NOT AND DUP2 SSTORE JUMPDEST POP POP POP POP POP PUSH1 0x1 SWAP1 DUP2 SHL ADD PUSH1 0x4 SSTORE POP JUMP JUMPDEST PUSH1 0x5 SLOAD PUSH1 0x1 DUP1 PUSH1 0xA0 SHL SUB DUP1 DUP4 AND PUSH1 0x1 DUP1 PUSH1 0xA0 SHL SUB NOT DUP4 AND OR PUSH1 0x5 SSTORE DUP3 DUP2 DUP4 AND PUSH32 0x8BE0079C531659141344CD1FD0A4F28419497F9722A3DAAFE3B4186F6B6457E0 PUSH1 0x0 PUSH1 0x40 MLOAD LOG3 POP POP POP JUMP INVALID PUSH1 0x40 PUSH1 0x80 DUP2 MSTORE PUSH1 0x4 CALLDATASIZE LT PUSH2 0x361 JUMPI PUSH1 0x0 DUP1 CALLDATALOAD PUSH1 0xE0 SHR PUSH4 0x6FDDE03 DUP2 EQ PUSH2 0xD4 JUMPI PUSH4 0x95EA7B3 DUP2 EQ PUSH2 0x100 JUMPI PUSH4 0x18160DDD DUP2 EQ PUSH2 0x133 JUMPI PUSH4 0x23B872DD DUP2 EQ PUSH2 0x153 JUMPI PUSH4 0x313CE567 DUP2 EQ PUSH2 0x188 JUMPI PUSH4 0x39509351 DUP2 EQ PUSH2 0x1A6 JUMPI PUSH4 0x40C10F19 DUP2 EQ PUSH2 0x1C3 JUMPI PUSH4 0x70A08231 DUP2 EQ PUSH2 0x1E7 JUMPI PUSH4 0x715018A6 DUP2 EQ PUSH2 0x222 JUMPI PUSH4 0x8DA5CB5B DUP2 EQ PUSH2 0x242 JUMPI PUSH4 0x95D89B41 DUP2 EQ PUSH2 0x26E JUMPI PUSH4 0xA457C2D7 DUP2 EQ PUSH2 0x289 JUMPI PUSH4 0xA9059CBB DUP2 EQ PUSH2 0x2A6 JUMPI PUSH4 0xBEC3FA17 DUP2 EQ PUSH2 0x2C3 JUMPI PUSH4 0xDD62ED3E DUP2 EQ PUSH2 0x2F4 JUMPI PUSH4 0xF2FDE38B DUP2 EQ PUSH2 0x343 JUMPI PUSH4 0xF8B2CB4F DUP2 EQ PUSH2 0x1E7 JUMPI PUSH2 0x35E JUMP JUMPDEST CALLVALUE ISZERO PUSH2 0xDE JUMPI DUP2 DUP3 REVERT JUMPDEST PUSH2 0xE7 CALLDATASIZE PUSH2 0x367 JUMP JUMPDEST PUSH2 0xEF PUSH2 0x66F JUMP JUMPDEST DUP4 MLOAD DUP1 PUSH2 0xFC DUP4 DUP4 PUSH2 0x37C JUMP JUMPDEST SUB DUP2 RETURN JUMPDEST CALLVALUE ISZERO PUSH2 0x10A JUMPI DUP2 DUP3 REVERT JUMPDEST PUSH2 0x113 CALLDATASIZE PUSH2 0x3D1 JUMP JUMPDEST PUSH2 0x11D DUP2 DUP4 PUSH2 0x808 JUMP JUMPDEST SWAP2 POP POP DUP4 MLOAD DUP1 PUSH2 0xFC DUP4 DUP4 SWAP1 ISZERO ISZERO DUP2 MSTORE PUSH1 0x20 ADD SWAP1 JUMP JUMPDEST CALLVALUE ISZERO PUSH2 0x13D JUMPI DUP2 DUP3 REVERT JUMPDEST PUSH2 0x146 CALLDATASIZE PUSH2 0x367 JUMP JUMPDEST PUSH1 0x2 SLOAD DUP4 MLOAD DUP2 DUP2 MSTORE PUSH1 0x20 DUP2 RETURN JUMPDEST CALLVALUE ISZERO PUSH2 0x15D JUMPI DUP2 DUP3 REVERT JUMPDEST PUSH2 0x166 CALLDATASIZE PUSH2 0x409 JUMP JUMPDEST PUSH2 0x171 DUP2 DUP4 DUP6 PUSH2 0x813 JUMP JUMPDEST SWAP3 POP POP POP DUP4 MLOAD DUP1 PUSH2 0xFC DUP4 DUP4 SWAP1 ISZERO ISZERO DUP2 MSTORE PUSH1 0x20 ADD SWAP1 JUMP JUMPDEST CALLVALUE ISZERO PUSH2 0x192 JUMPI DUP2 DUP3 REVERT JUMPDEST PUSH2 0x19B CALLDATASIZE PUSH2 0x367 JUMP JUMPDEST DUP3 MLOAD PUSH1 0x12 DUP2 MSTORE PUSH1 0x20 DUP2 RETURN JUMPDEST CALLVALUE ISZERO PUSH2 0x1B0 JUMPI DUP2 DUP3 REVERT JUMPDEST PUSH2 0x1B9 CALLDATASIZE PUSH2 0x3D1 JUMP JUMPDEST PUSH2 0x11D DUP2 DUP4 PUSH2 0x8DE JUMP JUMPDEST CALLVALUE ISZERO PUSH2 0x1CD JUMPI DUP2 DUP3 REVERT JUMPDEST PUSH2 0x1D6 CALLDATASIZE PUSH2 0x3D1 JUMP JUMPDEST PUSH2 0x1E0 DUP2 DUP4 PUSH2 0xC12 JUMP JUMPDEST POP POP DUP2 DUP4 MLOAD RETURN JUMPDEST CALLVALUE ISZERO PUSH2 0x1F1 JUMPI DUP2 DUP3 REVERT JUMPDEST PUSH2 0x218 PUSH2 0x1FD CALLDATASIZE PUSH2 0x45C JUMP JUMPDEST PUSH1 0x1 PUSH1 0x1 PUSH1 0xA0 SHL SUB AND PUSH1 0x0 SWAP1 DUP2 MSTORE PUSH1 0x20 DUP2 SWAP1 MSTORE PUSH1 0x40 SWAP1 KECCAK256 SLOAD SWAP1 JUMP JUMPDEST DUP4 MLOAD DUP2 DUP2 MSTORE PUSH1 0x20 DUP2 RETURN JUMPDEST CALLVALUE ISZERO PUSH2 0x22C JUMPI DUP2 DUP3 REVERT JUMPDEST PUSH2 0x235 CALLDATASIZE PUSH2 0x367 JUMP JUMPDEST PUSH2 0x23D PUSH2 0x4DA JUMP JUMPDEST DUP2 DUP4 MLOAD RETURN JUMPDEST CALLVALUE ISZERO PUSH2 0x24C JUMPI DUP2 DUP3 REVERT JUMPDEST PUSH2 0x255 CALLDATASIZE PUSH2 0x367 JUMP JUMPDEST PUSH1 0x5 SLOAD DUP4 MLOAD PUSH1 0x1 PUSH1 0x1 PUSH1 0xA0 SHL SUB SWAP1 SWAP2 AND DUP1 DUP3 MSTORE SWAP1 PUSH1 0x20 DUP2 RETURN JUMPDEST CALLVALUE ISZERO PUSH2 0x278 JUMPI DUP2 DUP3 REVERT JUMPDEST PUSH2 0x281 CALLDATASIZE PUSH2 0x367 JUMP JUMPDEST PUSH2 0xEF PUSH2 0x739 JUMP JUMPDEST CALLVALUE ISZERO PUSH2 0x293 JUMPI DUP2 DUP3 REVERT JUMPDEST PUSH2 0x29C CALLDATASIZE PUSH2 0x3D1 JUMP JUMPDEST PUSH2 0x11D DUP2 DUP4 PUSH2 0x909 JUMP JUMPDEST CALLVALUE ISZERO PUSH2 0x2B0 JUMPI DUP2 DUP3 REVERT JUMPDEST PUSH2 0x2B9 CALLDATASIZE PUSH2 0x3D1 JUMP JUMPDEST PUSH2 0x11D DUP2 DUP4 PUSH2 0x7F5 JUMP JUMPDEST CALLVALUE ISZERO PUSH2 0x2CD JUMPI DUP2 DUP3 REVERT JUMPDEST PUSH2 0x2D6 CALLDATASIZE PUSH2 0x3D1 JUMP JUMPDEST PUSH2 0x2E0 DUP2 DUP4 PUSH2 0xCAC JUMP JUMPDEST SWAP2 POP POP DUP4 MLOAD DUP1 PUSH2 0xFC DUP4 DUP4 SWAP1 DUP2 MSTORE PUSH1 0x20 ADD SWAP1 JUMP JUMPDEST CALLVALUE ISZERO PUSH2 0x2FE JUMPI DUP2 DUP3 REVERT JUMPDEST PUSH2 0x307 CALLDATASIZE PUSH2 0x48E JUMP JUMPDEST PUSH2 0x32E DUP2 PUSH2 0x329 DUP5 PUSH1 0x1 PUSH1 0x1 PUSH1 0xA0 SHL SUB AND PUSH1 0x0 SWAP1 DUP2 MSTORE PUSH1 0x1 PUSH1 0x20 MSTORE PUSH1 0x40 SWAP1 KECCAK256 SWAP1 JUMP JUMPDEST PUSH2 0x7D7 JUMP JUMPDEST SLOAD SWAP2 POP POP DUP4 MLOAD DUP1 PUSH2 0xFC DUP4 DUP4 SWAP1 DUP2 MSTORE PUSH1 0x20 ADD SWAP1 JUMP JUMPDEST CALLVALUE ISZERO PUSH2 0x34D JUMPI DUP2 DUP3 REVERT JUMPDEST PUSH2 0x23D PUSH2 0x359 CALLDATASIZE PUSH2 0x45C JUMP JUMPDEST PUSH2 0x585 JUMP JUMPDEST POP POP JUMPDEST POP PUSH1 0x0 DUP1 REVERT JUMPDEST PUSH1 0x0 PUSH1 0x3 NOT DUP3 ADD SLT ISZERO PUSH2 0x379 JUMPI PUSH1 0x0 DUP1 REVERT JUMPDEST POP JUMP JUMPDEST PUSH1 0x0 PUSH1 0x20 DUP1 DUP4 MSTORE DUP4 MLOAD DUP1 DUP3 DUP6 ADD MSTORE PUSH1 0x0 JUMPDEST DUP2 DUP2 LT ISZERO PUSH2 0x3A9 JUMPI DUP6 DUP2 ADD DUP4 ADD MLOAD DUP6 DUP3 ADD PUSH1 0x40 ADD MSTORE DUP3 ADD PUSH2 0x38D JUMP JUMPDEST DUP2 DUP2 GT ISZERO PUSH2 0x3BB JUMPI PUSH1 0x0 PUSH1 0x40 DUP4 DUP8 ADD ADD MSTORE JUMPDEST POP PUSH1 0x1F ADD PUSH1 0x1F NOT AND SWAP3 SWAP1 SWAP3 ADD PUSH1 0x40 ADD SWAP4 SWAP3 POP POP POP JUMP JUMPDEST PUSH1 0x0 DUP1 PUSH1 0x40 PUSH1 0x3 NOT DUP5 ADD SLT ISZERO PUSH2 0x3E6 JUMPI PUSH1 0x0 DUP1 REVERT JUMPDEST PUSH1 0x4 CALLDATALOAD PUSH1 0x1 PUSH1 0x1 PUSH1 0xA0 SHL SUB DUP2 AND DUP2 EQ PUSH2 0x3FE JUMPI PUSH1 0x0 DUP1 REVERT JUMPDEST SWAP4 PUSH1 0x24 CALLDATALOAD SWAP4 POP SWAP2 POP POP JUMP JUMPDEST PUSH1 0x0 DUP1 DUP1 PUSH1 0x60 PUSH1 0x3 NOT DUP6 ADD SLT ISZERO PUSH2 0x41F JUMPI PUSH1 0x0 DUP1 REVERT JUMPDEST PUSH1 0x4 CALLDATALOAD PUSH1 0x1 PUSH1 0x1 PUSH1 0xA0 SHL SUB DUP1 DUP3 AND DUP3 EQ PUSH2 0x438 JUMPI PUSH1 0x0 DUP1 REVERT JUMPDEST SWAP1 SWAP4 POP PUSH1 0x24 CALLDATALOAD SWAP1 DUP1 DUP3 AND DUP3 EQ PUSH2 0x44D JUMPI PUSH1 0x0 DUP1 REVERT JUMPDEST POP SWAP3 SWAP5 SWAP3 SWAP4 POP POP PUSH1 0x44 CALLDATALOAD SWAP2 SWAP1 POP JUMP JUMPDEST PUSH1 0x0 PUSH1 0x20 PUSH1 0x3 NOT DUP4 ADD SLT ISZERO PUSH2 0x470 JUMPI PUSH1 0x0 DUP1 REVERT JUMPDEST PUSH1 0x4 CALLDATALOAD PUSH1 0x1 PUSH1 0x1 PUSH1 0xA0 SHL SUB DUP2 AND DUP2 EQ PUSH2 0x488 JUMPI PUSH1 0x0 DUP1 REVERT JUMPDEST SWAP3 SWAP2 POP POP JUMP JUMPDEST PUSH1 0x0 DUP1 PUSH1 0x40 PUSH1 0x3 NOT DUP5 ADD SLT ISZERO PUSH2 0x4A3 JUMPI PUSH1 0x0 DUP1 REVERT JUMPDEST PUSH1 0x4 CALLDATALOAD PUSH1 0x1 PUSH1 0x1 PUSH1 0xA0 SHL SUB DUP1 DUP3 AND DUP3 EQ PUSH2 0x4BC JUMPI PUSH1 0x0 DUP1 REVERT JUMPDEST SWAP1 SWAP3 POP PUSH1 0x24 CALLDATALOAD SWAP1 DUP1 DUP3 AND DUP3 EQ PUSH2 0x4D1 JUMPI PUSH1 0x0 DUP1 REVERT JUMPDEST POP SWAP2 SWAP4 SWAP2 SWAP3 POP POP JUMP JUMPDEST PUSH2 0x4E2 PUSH2 0x52D JUMP JUMPDEST PUSH1 0x5 DUP1 SLOAD PUSH1 0x1 PUSH1 0x1 PUSH1 0xA0 SHL SUB NOT DUP2 AND SWAP1 SWAP2 SSTORE PUSH1 0x40 MLOAD PUSH1 0x0 SWAP1 PUSH1 0x1 PUSH1 0x1 PUSH1 0xA0 SHL SUB DUP4 AND SWAP1 PUSH32 0x8BE0079C531659141344CD1FD0A4F28419497F9722A3DAAFE3B4186F6B6457E0 SWAP1 DUP4 SWAP1 LOG3 POP JUMP JUMPDEST PUSH1 0x5 SLOAD PUSH1 0x1 PUSH1 0x1 PUSH1 0xA0 SHL SUB AND CALLER DUP2 EQ PUSH2 0x379 JUMPI PUSH1 0x40 MLOAD PUSH3 0x461BCD PUSH1 0xE5 SHL DUP2 MSTORE PUSH1 0x20 PUSH1 0x4 DUP3 ADD DUP2 SWAP1 MSTORE PUSH1 0x24 DUP3 ADD MSTORE PUSH32 0x4F776E61626C653A2063616C6C6572206973206E6F7420746865206F776E6572 PUSH1 0x44 DUP3 ADD MSTORE PUSH1 0x64 DUP2 REVERT JUMPDEST PUSH2 0x58D PUSH2 0x52D JUMP JUMPDEST PUSH1 0x1 PUSH1 0x1 PUSH1 0xA0 SHL SUB DUP2 DUP2 AND DUP1 PUSH2 0x5F1 JUMPI PUSH1 0x40 MLOAD PUSH3 0x461BCD PUSH1 0xE5 SHL DUP2 MSTORE PUSH1 0x20 PUSH1 0x4 DUP3 ADD MSTORE PUSH1 0x26 PUSH1 0x24 DUP3 ADD MSTORE PUSH32 0x4F776E61626C653A206E6577206F776E657220697320746865207A65726F2061 PUSH1 0x44 DUP3 ADD MSTORE PUSH6 0x646472657373 PUSH1 0xD0 SHL PUSH1 0x64 DUP3 ADD MSTORE PUSH1 0x84 DUP2 REVERT JUMPDEST PUSH1 0x5 SLOAD DUP2 PUSH1 0x1 DUP1 PUSH1 0xA0 SHL SUB NOT DUP3 AND OR PUSH1 0x5 SSTORE DUP4 DUP4 DUP3 AND PUSH32 0x8BE0079C531659141344CD1FD0A4F28419497F9722A3DAAFE3B4186F6B6457E0 PUSH1 0x0 PUSH1 0x40 MLOAD LOG3 POP POP POP POP JUMP JUMPDEST PUSH1 0x1F DUP3 ADD PUSH1 0x1F NOT AND DUP2 ADD PUSH8 0xFFFFFFFFFFFFFFFF DUP2 GT DUP3 DUP3 LT OR ISZERO PUSH2 0x668 JUMPI PUSH4 0x4E487B71 PUSH1 0xE0 SHL PUSH1 0x0 MSTORE PUSH1 0x41 PUSH1 0x4 MSTORE PUSH1 0x24 PUSH1 0x0 REVERT JUMPDEST PUSH1 0x40 MSTORE POP POP JUMP JUMPDEST PUSH1 0x40 MLOAD PUSH1 0x3 SLOAD PUSH1 0x0 SWAP1 PUSH1 0x1 DUP2 DUP2 SHR SWAP1 DUP1 DUP4 AND DUP1 PUSH2 0x68D JUMPI PUSH1 0x7F DUP4 AND SWAP3 POP JUMPDEST PUSH1 0x20 DUP1 DUP5 LT DUP3 EQ ISZERO PUSH2 0x6AD JUMPI PUSH4 0x4E487B71 PUSH1 0xE0 SHL DUP7 MSTORE PUSH1 0x22 PUSH1 0x4 MSTORE PUSH1 0x24 DUP7 REVERT JUMPDEST DUP4 DUP8 MSTORE PUSH1 0x20 DUP8 ADD DUP3 DUP1 ISZERO PUSH2 0x6C8 JUMPI PUSH1 0x1 DUP2 EQ PUSH2 0x6D9 JUMPI PUSH2 0x722 JUMP JUMPDEST PUSH1 0xFF NOT DUP8 AND DUP3 MSTORE DUP3 DUP3 ADD SWAP8 POP PUSH2 0x722 JUMP JUMPDEST PUSH1 0x3 PUSH1 0x0 MSTORE PUSH32 0xC2575A0E9E593C00F959F8C92F12DB2869C3395A3B0502D05E2516446F71F85B JUMPDEST PUSH1 0x0 JUMPDEST DUP8 DUP2 LT ISZERO PUSH2 0x71C JUMPI DUP2 SLOAD DUP5 DUP3 ADD MSTORE SWAP1 DUP7 ADD SWAP1 DUP5 ADD PUSH2 0x703 JUMP JUMPDEST DUP4 ADD SWAP9 POP POP JUMPDEST POP POP POP POP POP POP POP PUSH2 0x735 DUP3 DUP3 SUB DUP4 PUSH2 0x634 JUMP JUMPDEST POP SWAP1 JUMP JUMPDEST PUSH1 0x40 MLOAD PUSH1 0x4 SLOAD PUSH1 0x0 SWAP1 PUSH1 0x1 DUP2 DUP2 SHR SWAP1 DUP1 DUP4 AND DUP1 PUSH2 0x757 JUMPI PUSH1 0x7F DUP4 AND SWAP3 POP JUMPDEST PUSH1 0x20 DUP1 DUP5 LT DUP3 EQ ISZERO PUSH2 0x777 JUMPI PUSH4 0x4E487B71 PUSH1 0xE0 SHL DUP7 MSTORE PUSH1 0x22 PUSH1 0x4 MSTORE PUSH1 0x24 DUP7 REVERT JUMPDEST DUP4 DUP8 MSTORE PUSH1 0x20 DUP8 ADD DUP3 DUP1 ISZERO PUSH2 0x6C8 JUMPI PUSH1 0x1 DUP2 EQ PUSH2 0x792 JUMPI PUSH2 0x722 JUMP JUMPDEST PUSH1 0x4 PUSH1 0x0 MSTORE PUSH32 0x8A35ACFBC15FF81A39AE7D344FD709F28E8600B4AA8C65C6B64BFE7FE36BD19B PUSH2 0x700 JUMP JUMPDEST PUSH1 0x1 PUSH1 0x1 PUSH1 0xA0 SHL SUB AND PUSH1 0x0 SWAP1 DUP2 MSTORE PUSH1 0x20 DUP2 SWAP1 MSTORE PUSH1 0x40 SWAP1 KECCAK256 SWAP1 JUMP JUMPDEST PUSH1 0x1 PUSH1 0x1 PUSH1 0xA0 SHL SUB SWAP2 SWAP1 SWAP2 AND PUSH1 0x0 SWAP1 DUP2 MSTORE PUSH1 0x20 SWAP2 SWAP1 SWAP2 MSTORE PUSH1 0x40 SWAP1 KECCAK256 SWAP1 JUMP JUMPDEST PUSH2 0x800 DUP3 DUP3 CALLER PUSH2 0xA3A JUMP JUMPDEST POP PUSH1 0x1 SWAP2 SWAP1 POP JUMP JUMPDEST PUSH2 0x800 DUP3 DUP3 CALLER PUSH2 0xB03 JUMP JUMPDEST PUSH1 0x1 PUSH1 0x1 PUSH1 0xA0 SHL SUB DUP2 AND PUSH1 0x0 SWAP1 DUP2 MSTORE PUSH1 0x1 PUSH1 0x20 MSTORE PUSH1 0x40 DUP2 KECCAK256 PUSH2 0x836 SWAP1 CALLER SWAP1 PUSH2 0x7D7 JUMP JUMPDEST SLOAD PUSH1 0x0 NOT DUP2 EQ PUSH2 0x89A JUMPI DUP5 DUP2 LT ISZERO PUSH2 0x88D JUMPI PUSH1 0x40 MLOAD PUSH3 0x461BCD PUSH1 0xE5 SHL DUP2 MSTORE PUSH1 0x20 PUSH1 0x4 DUP3 ADD MSTORE PUSH1 0x1D PUSH1 0x24 DUP3 ADD MSTORE PUSH32 0x45524332303A20696E73756666696369656E7420616C6C6F77616E6365000000 PUSH1 0x44 DUP3 ADD MSTORE PUSH1 0x64 DUP2 REVERT JUMPDEST PUSH2 0x89A DUP6 DUP3 SUB CALLER DUP6 PUSH2 0xB03 JUMP JUMPDEST POP PUSH2 0x8A6 DUP5 DUP5 DUP5 PUSH2 0xA3A JUMP JUMPDEST POP PUSH1 0x1 SWAP4 SWAP3 POP POP POP JUMP JUMPDEST PUSH4 0x4E487B71 PUSH1 0xE0 SHL PUSH1 0x0 MSTORE PUSH1 0x11 PUSH1 0x4 MSTORE PUSH1 0x24 PUSH1 0x0 REVERT JUMPDEST PUSH1 0x0 DUP3 NOT DUP3 GT ISZERO PUSH2 0x8D9 JUMPI PUSH2 0x8D9 PUSH2 0x8B0 JUMP JUMPDEST POP ADD SWAP1 JUMP JUMPDEST CALLER PUSH1 0x0 MSTORE PUSH1 0x1 PUSH1 0x20 MSTORE PUSH2 0x800 PUSH2 0x902 DUP4 PUSH2 0x8FC DUP5 PUSH1 0x40 PUSH1 0x0 KECCAK256 PUSH2 0x7D7 JUMP JUMPDEST SLOAD PUSH2 0x8C6 JUMP JUMPDEST DUP3 CALLER PUSH2 0xB03 JUMP JUMPDEST CALLER PUSH1 0x0 MSTORE PUSH1 0x1 PUSH1 0x20 MSTORE PUSH1 0x0 PUSH2 0x922 DUP3 PUSH1 0x40 PUSH1 0x0 KECCAK256 PUSH2 0x7D7 JUMP JUMPDEST SLOAD DUP4 DUP2 LT ISZERO PUSH2 0x97E JUMPI PUSH1 0x40 MLOAD PUSH3 0x461BCD PUSH1 0xE5 SHL DUP2 MSTORE PUSH1 0x20 PUSH1 0x4 DUP3 ADD MSTORE PUSH1 0x25 PUSH1 0x24 DUP3 ADD MSTORE PUSH32 0x45524332303A2064656372656173656420616C6C6F77616E63652062656C6F77 PUSH1 0x44 DUP3 ADD MSTORE PUSH5 0x207A65726F PUSH1 0xD8 SHL PUSH1 0x64 DUP3 ADD MSTORE PUSH1 0x84 DUP2 REVERT JUMPDEST PUSH2 0x8A6 DUP5 DUP3 SUB DUP5 CALLER PUSH2 0xB03 JUMP JUMPDEST DUP1 PUSH2 0x379 JUMPI PUSH1 0x40 MLOAD PUSH3 0x461BCD PUSH1 0xE5 SHL DUP2 MSTORE PUSH1 0x20 PUSH1 0x4 DUP3 ADD MSTORE PUSH1 0x23 PUSH1 0x24 DUP3 ADD MSTORE PUSH32 0x45524332303A207472616E7366657220746F20746865207A65726F2061646472 PUSH1 0x44 DUP3 ADD MSTORE PUSH3 0x657373 PUSH1 0xE8 SHL PUSH1 0x64 DUP3 ADD MSTORE PUSH1 0x84 DUP2 REVERT JUMPDEST DUP1 PUSH2 0x379 JUMPI PUSH1 0x40 MLOAD PUSH3 0x461BCD PUSH1 0xE5 SHL DUP2 MSTORE PUSH1 0x20 PUSH1 0x4 DUP3 ADD MSTORE PUSH1 0x26 PUSH1 0x24 DUP3 ADD MSTORE PUSH32 0x45524332303A207472616E7366657220616D6F756E7420657863656564732062 PUSH1 0x44 DUP3 ADD MSTORE PUSH6 0x616C616E6365 PUSH1 0xD0 SHL PUSH1 0x64 DUP3 ADD MSTORE PUSH1 0x84 DUP2 REVERT JUMPDEST PUSH1 0x1 PUSH1 0x1 PUSH1 0xA0 SHL SUB DUP2 DUP2 AND PUSH2 0xA9C JUMPI PUSH1 0x40 MLOAD PUSH3 0x461BCD PUSH1 0xE5 SHL DUP2 MSTORE PUSH1 0x20 PUSH1 0x4 DUP3 ADD MSTORE PUSH1 0x25 PUSH1 0x24 DUP3 ADD MSTORE PUSH32 0x45524332303A207472616E736665722066726F6D20746865207A65726F206164 PUSH1 0x44 DUP3 ADD MSTORE PUSH5 0x6472657373 PUSH1 0xD8 SHL PUSH1 0x64 DUP3 ADD MSTORE PUSH1 0x84 DUP2 REVERT JUMPDEST PUSH2 0xAA9 DUP2 DUP5 AND ISZERO ISZERO PUSH2 0x98B JUMP JUMPDEST POP PUSH2 0xAB3 DUP2 PUSH2 0x7BD JUMP JUMPDEST SLOAD PUSH2 0xAC0 DUP5 DUP3 LT ISZERO PUSH2 0x9E1 JUMP JUMPDEST DUP4 DUP2 SUB PUSH2 0xACC DUP4 PUSH2 0x7BD JUMP JUMPDEST SSTORE POP PUSH2 0xAD7 DUP3 PUSH2 0x7BD JUMP JUMPDEST DUP1 SLOAD DUP5 ADD SWAP1 SSTORE PUSH1 0x40 MLOAD DUP4 DUP2 MSTORE DUP3 DUP3 PUSH1 0x0 DUP1 MLOAD PUSH1 0x20 PUSH2 0xD84 DUP4 CODECOPY DUP2 MLOAD SWAP2 MSTORE DUP4 PUSH1 0x20 DUP2 ADD JUMPDEST SUB DUP5 LOG3 POP POP POP POP JUMP JUMPDEST PUSH1 0x1 PUSH1 0x1 PUSH1 0xA0 SHL SUB DUP2 DUP2 AND PUSH2 0xB63 JUMPI PUSH1 0x40 MLOAD PUSH3 0x461BCD PUSH1 0xE5 SHL DUP2 MSTORE PUSH1 0x20 PUSH1 0x4 DUP3 ADD MSTORE PUSH1 0x24 DUP1 DUP3 ADD MSTORE PUSH32 0x45524332303A20617070726F76652066726F6D20746865207A65726F20616464 PUSH1 0x44 DUP3 ADD MSTORE PUSH4 0x72657373 PUSH1 0xE0 SHL PUSH1 0x64 DUP3 ADD MSTORE PUSH1 0x84 DUP2 REVERT JUMPDEST DUP1 DUP4 AND PUSH2 0xBBA JUMPI PUSH1 0x40 MLOAD PUSH3 0x461BCD PUSH1 0xE5 SHL DUP2 MSTORE PUSH1 0x20 PUSH1 0x4 DUP3 ADD MSTORE PUSH1 0x22 PUSH1 0x24 DUP3 ADD MSTORE PUSH32 0x45524332303A20617070726F766520746F20746865207A65726F206164647265 PUSH1 0x44 DUP3 ADD MSTORE PUSH2 0x7373 PUSH1 0xF0 SHL PUSH1 0x64 DUP3 ADD MSTORE PUSH1 0x84 DUP2 REVERT JUMPDEST POP DUP3 PUSH2 0xBDE DUP4 PUSH2 0x329 DUP5 PUSH1 0x1 PUSH1 0x1 PUSH1 0xA0 SHL SUB AND PUSH1 0x0 SWAP1 DUP2 MSTORE PUSH1 0x1 PUSH1 0x20 MSTORE PUSH1 0x40 SWAP1 KECCAK256 SWAP1 JUMP JUMPDEST SSTORE PUSH1 0x40 MLOAD DUP4 DUP2 MSTORE DUP3 DUP3 PUSH32 0x8C5BE1E5EBEC7D5BD14F71427D1E84F3DD0314C0F7B2291E5B200AC8C7C3B925 DUP4 PUSH1 0x20 DUP2 ADD PUSH2 0xAFA JUMP JUMPDEST PUSH2 0xC1A PUSH2 0x52D JUMP JUMPDEST PUSH1 0x1 PUSH1 0x1 PUSH1 0xA0 SHL SUB DUP2 AND PUSH2 0xC6D JUMPI PUSH1 0x40 MLOAD PUSH3 0x461BCD PUSH1 0xE5 SHL DUP2 MSTORE PUSH1 0x20 PUSH1 0x4 DUP3 ADD MSTORE PUSH1 0x1F PUSH1 0x24 DUP3 ADD MSTORE PUSH32 0x45524332303A206D696E7420746F20746865207A65726F206164647265737300 PUSH1 0x44 DUP3 ADD MSTORE PUSH1 0x64 DUP2 REVERT JUMPDEST PUSH2 0xC79 DUP3 PUSH1 0x2 SLOAD PUSH2 0x8C6 JUMP JUMPDEST PUSH1 0x2 SSTORE PUSH2 0xC85 DUP2 PUSH2 0x7BD JUMP JUMPDEST DUP1 SLOAD DUP4 ADD SWAP1 SSTORE PUSH1 0x40 MLOAD DUP3 DUP2 MSTORE DUP2 PUSH1 0x0 PUSH1 0x0 DUP1 MLOAD PUSH1 0x20 PUSH2 0xD84 DUP4 CODECOPY DUP2 MLOAD SWAP2 MSTORE PUSH1 0x20 DUP5 LOG3 POP POP POP JUMP JUMPDEST CALLER PUSH1 0x0 MSTORE PUSH1 0x0 PUSH1 0x20 MSTORE PUSH1 0x0 PUSH1 0x40 PUSH1 0x0 KECCAK256 SLOAD DUP4 DUP2 LT ISZERO PUSH2 0xD70 JUMPI DUP1 DUP5 LT ISZERO PUSH2 0xCD5 JUMPI PUSH2 0xCD5 PUSH2 0x8B0 JUMP JUMPDEST DUP1 DUP5 SUB PUSH2 0xCE0 PUSH2 0x52D JUMP JUMPDEST PUSH1 0x1 PUSH1 0x1 PUSH1 0xA0 SHL SUB DUP5 AND PUSH2 0xD33 JUMPI PUSH1 0x40 MLOAD PUSH3 0x461BCD PUSH1 0xE5 SHL DUP2 MSTORE PUSH1 0x20 PUSH1 0x4 DUP3 ADD MSTORE PUSH1 0x1F PUSH1 0x24 DUP3 ADD MSTORE PUSH32 0x45524332303A206D696E7420746F20746865207A65726F206164647265737300 PUSH1 0x44 DUP3 ADD MSTORE PUSH1 0x64 DUP2 REVERT JUMPDEST PUSH2 0xD3F DUP2 PUSH1 0x2 SLOAD PUSH2 0x8C6 JUMP JUMPDEST PUSH1 0x2 SSTORE PUSH2 0xD4B DUP5 PUSH2 0x7BD JUMP JUMPDEST DUP1 SLOAD DUP3 ADD SWAP1 SSTORE PUSH1 0x40 MLOAD DUP2 DUP2 MSTORE DUP5 PUSH1 0x0 PUSH1 0x0 DUP1 MLOAD PUSH1 0x20 PUSH2 0xD84 DUP4 CODECOPY DUP2 MLOAD SWAP2 MSTORE PUSH1 0x20 DUP5 LOG3 POP POP JUMPDEST POP PUSH2 0xD7C DUP4 DUP4 CALLER PUSH2 0xA3A JUMP JUMPDEST POP SWAP1 SWAP2 SWAP1 POP JUMP INVALID 0xDD CALLCODE MSTORE 0xAD SHL 0xE2 0xC8 SWAP12 PUSH10 0xC2B068FC378DAA952BA7 CALL PUSH4 0xC4A11628 CREATE2 GAS 0x4D CREATE2 0x23 0xB3 0xEF LOG3 PUSH5 0x6970667358 0x22 SLT KECCAK256 EXTCODECOPY JUMP 0x21 LOG3 AND 0xBD CHAINID RETURN PUSH29 0x15F0A3E546293A23041EADCE02A874CE3C89E32FCE2B046C6578706572 PUSH10 0x6D656E74616CF564736F PUSH13 0x63430008090041000000000000 "},"methodIdentifiers":{"allowance(address,address)":"dd62ed3e","approve(address,uint256)":"095ea7b3","balanceOf(address)":"70a08231","decimals()":"313ce567","decreaseAllowance(address,uint256)":"a457c2d7","getBalance(address)":"f8b2cb4f","increaseAllowance(address,uint256)":"39509351","mint(address,uint256)":"40c10f19","name()":"06fdde03","owner()":"8da5cb5b","renounceOwnership()":"715018a6","symbol()":"95d89b41","totalSupply()":"18160ddd","transfer(address,uint256)":"a9059cbb","transferFrom(address,address,uint256)":"23b872dd","transferOwnership(address)":"f2fde38b","transferTokens(address,uint256)":"bec3fa17"}}}}}