{"contracts/EHR.sol":{"EHR":{"abi":[{"inputs":[{"internalType":"string","name":"_url","type":"string"},{"internalType":"string","name":"_type","type":"string"},{"internalType":"string","name":"_description","type":"string"}],"name":"addDocument","outputs":[],"stateMutability":"nonpayable","type":"function"},{"inputs":[{"internalType":"address","name":"user","type":"address"}],"name":"allow","outputs":[],"stateMutability":"nonpayable","type":"function"},{"inputs":[{"internalType":"string","name":"_patientName","type":"string"},{"internalType":"address","name":"_patientAddress","type":"address"},{"internalType":"string","name":"_docName","type":"string"},{"internalType":"address","name":"_docAddress","type":"address"},{"internalType":"string","name":"_description","type":"string"},{"internalType":"string","name":"_prescribingDoctor","type":"string"},{"internalType":"string","name":"_medicineDosage","type":"string"}],"name":"createPrescription","outputs":[],"stateMutability":"nonpayable","type":"function"},{"inputs":[{"internalType":"address","name":"user","type":"address"}],"name":"disallow","outputs":[],"stateMutability":"nonpayable","type":"function"},{"inputs":[{"internalType":"address","name":"_user","type":"address"}],"name":"displayDocument","outputs":[{"components":[{"internalType":"string","name":"documentURL","type":"string"},{"internalType":"string","name":"documenType","type":"string"},{"internalType":"string","name":"description","type":"string"},{"internalType":"uint256","name":"uploadedAt","type":"uint256"}],"internalType":"struct EHR.Documents[]","name":"","type":"tuple[]"}],"stateMutability":"view","type":"function"},{"inputs":[{"internalType":"address","name":"_user","type":"address"}],"name":"displayPrescription","outputs":[{"components":[{"internalType":"string","name":"patientName","type":"string"},{"internalType":"address","name":"patientAddress","type":"address"},{"internalType":"string","name":"docName","type":"string"},{"internalType":"address","name":"docAddress","type":"address"},{"internalType":"string","name":"description","type":"string"},{"internalType":"string","name":"medicineDosage","type":"string"},{"internalType":"string","name":"prescribingDoctor","type":"string"},{"internalType":"uint256","name":"createdAt","type":"uint256"}],"internalType":"struct EHR.Prescription[]","name":"","type":"tuple[]"}],"stateMutability":"view","type":"function"},{"inputs":[],"name":"sharedAccess","outputs":[{"components":[{"internalType":"address","name":"user","type":"address"},{"internalType":"bool","name":"access","type":"bool"}],"internalType":"struct EHR.Access[]","name":"","type":"tuple[]"}],"stateMutability":"view","type":"function"}],"evm":{"bytecode":{"linkReferences":{},"object":"6080604052341561000f57600080fd5b6111bc8061001f608039806080f3fe6040608081526004361061017d576000803560e01c632350f40d8114610066576336a8915b811461009457634f56e85c81146100ba57638de84b8c81146100ef5763a9ed9cb881146101175763c924b47681146101375763ff9913e8811461015f5761017a565b3415610070578182fd5b610079366102db565b61008881838587898b8d6109fa565b50505050505050818351f35b341561009e578182fd5b6100a7366103be565b6100b2818385610883565b505050818351f35b34156100c4578182fd5b6100cd36610445565b6100de6100d9336106ec565b6110e5565b8351806100eb838361045a565b0381f35b34156100f9578182fd5b61010a610105366104b4565b610ebb565b8351806100eb8383610533565b3415610121578182fd5b61013261012d366104b4565b610d4d565b818351f35b3415610141578182fd5b61015261014d366104b4565b610f9a565b8351806100eb83836105df565b3415610169578182fd5b610132610175366104b4565b610c10565b50505b50600080fd5b634e487b7160e01b600052604160045260246000fd5b608081018181106001600160401b03821117156101b8576101b8610183565b60405250565b601f8201601f191681016001600160401b03811182821017156101e3576101e3610183565b6040525050565b604080519081016001600160401b038111828210171561020c5761020c610183565b60405290565b60405161010081016001600160401b038111828210171561020c5761020c610183565b600082601f83011261024657600080fd5b81356001600160401b0381111561025f5761025f610183565b604051610276601f8301601f1916602001826101be565b81815284602083860101111561028b57600080fd5b816020850160208301376000918101602001919091529392505050565b6024356001600160a01b03811681146102c057600080fd5b90565b6064356001600160a01b03811681146102c057600080fd5b600080808080808060e0600319890112156102f557600080fd5b600480356001600160401b038082111561030e57600080fd5b61031a8b838501610235565b99506103246102a8565b985060443591508082111561033857600080fd5b6103448b838501610235565b975061034e6102c3565b965060843591508082111561036257600080fd5b61036e8b838501610235565b955060a43591508082111561038257600080fd5b61038e8b838501610235565b945060c4359150808211156103a257600080fd5b506103af8a828401610235565b92505050919395979092949650565b600080806060600319850112156103d457600080fd5b6004356001600160401b03808211156103ec57600080fd5b6103f98683600401610235565b945060243591508082111561040d57600080fd5b61041a8683600401610235565b935060443591508082111561042e57600080fd5b5061043c8582600401610235565b93959294505050565b60006003198201121561045757600080fd5b50565b602080825282518282018190526000919060409081850190868401855b828110156104a757815180516001600160a01b031685528601511515868501529284019290850190600101610477565b5091979650505050505050565b60006020600319830112156104c857600080fd5b6004356001600160a01b03811681146104e057600080fd5b92915050565b6000815180845260005b8181101561050c576020818501810151868301820152016104f0565b8181111561051e576000602083870101525b50601f01601f19169290920160200192915050565b60006020808301818452808551808352604092508286019150828160051b87010184880160005b838110156105d157888303603f19018552815180516080808652610580818701836104e6565b915050888201518582038a87015261059882826104e6565b91505087820151858203898701526105b082826104e6565b6060938401519690930195909552509487019492509086019060010161055a565b509098975050505050505050565b60006020808301818452808551808352604092508286019150828160051b87010184880160005b838110156105d157888303603f190185528151805161010080865261062d818701836104e6565b915050888201516106488a8701826001600160a01b03169052565b50878201518582038987015261065e82826104e6565b91505060608083015161067b828801826001600160a01b03169052565b50506080808301518683038288015261069483826104e6565b9250505060a080830151868303828801526106af83826104e6565b9250505060c080830151868303828801526106ca83826104e6565b60e0948501519790940196909652505094870194925090860190600101610606565b6001600160a01b0316600090815260036020526040902090565b6001600160a01b039190911660009081526020919091526040902090565b634e487b7160e01b600052603260045260246000fd5b600181811c9082168061074e57607f821691505b6020821081141561076f57634e487b7160e01b600052602260045260246000fd5b50919050565b601f8211156107bf57600081815260208120601f850160051c8101602086101561079c5750805b601f850160051c820191505b818110156107bb578281556001016107a8565b5050505b505050565b81516001600160401b038111156107dd576107dd610183565b6107f1816107eb845461073a565b84610775565b602080601f831160018114610826576000841561080e5750858301515b600019600386901b1c1916600185901b1785556107bb565b600085815260208120601f198616915b8281101561085557888601518255948401946001909101908401610836565b50858210156108735787850151600019600388901b60f8161c191681555b5050505050600190811b01905550565b60405161088f81610199565b818152602080820184815260408301868152606084014281526000338152808552604081208054600160401b81106108c9576108c9610183565b60018082018084558083106108e0576108e0610724565b5091835286832097518051909860029290921b909101916001600160401b0382111561090e5761090e610183565b6109228261091c855461073a565b85610775565b87601f8311600181146109525785841561093c57508a8201515b600019600386901b1c191684841b1785556109a8565b600085815260209020601f19851690875b82811015610980578d8501518255938c0193908501908c01610963565b508582101561099e578c840151600019600388901b60f8161c191681555b50508284841b0185555b50506109b787518285016107c4565b50506109c78451600283016107c4565b8251600382015550505050505050505050565b80546001600160a01b0319166001600160a01b0392909216919091179055565b60405161010081018181106001600160401b0382111715610a1d57610a1d610183565b80604052508181526020810160018060a01b0380851682526040830186815260608401828916815260808501925089835260a085018c815260c086018c815260e0870142815233600052600160205260406000208054600160401b8110610a8657610a86610183565b60018101808355808210610a9c57610a9c610724565b5081600052602060002091508060031b8201915050610abc8951826107c4565b610ad9610ad089516001600160a01b031690565b600183016109da565b610ae78651600283016107c4565b610b04610afb86516001600160a01b031690565b600383016109da565b610b128751600483016107c4565b610b208451600583016107c4565b610b2e8351600683016107c4565b8151600782015550505050505050505050505050505050565b60008082548410610b5a57610b5a610724565b505060009081526020812090910191565b8054600160401b8110610b8057610b80610183565b600181018255610b908183610b47565b91508115610bae57634e487b7160e01b600052600060045260246000fd5b8351610bc3906001600160a01b0316826109da565b60209390930151835460ff60a01b191690151560a01b60ff60a01b16179092555050565b6000600019821415610c0957634e487b7160e01b600052601160045260246000fd5b5060010190565b610c47610c3a82610c35336001600160a01b0316600090815260026020526040902090565b610706565b805460ff19166001179055565b610c73610c6c82610c35336001600160a01b0316600090815260046020526040902090565b5460ff1690565b8015610cf45760005b610c85336106ec565b548110610c9157505050565b610ca381610c9e336106ec565b610b47565b50546001600160a01b0390811690848116821415610ce257610cc883610c9e336106ec565b50610ce081805460ff60a01b1916600160a01b179055565b505b5050610ced81610be7565b9050610c7c565b610cfd336106ec565b610d056101ea565b6001600160a01b038416815260016020820152610d228183610b6b565b5050610d49610c3a83610c35336001600160a01b0316600090815260046020526040902090565b5050565b336000526002602052610d64816040600020610706565b805460ff1916905560005b610d78336106ec565b548110610d83575050565b610d9081610c9e336106ec565b50546001600160a01b0390811690838116821415610dc257610db583610c9e336106ec565b50805460ff60a01b191690555b5050610dcd81610be7565b9050610d6f565b806104575760405162461bcd60e51b8152602060048201526015602482015274596f7520646f6e277420686176652061636365737360581b6044820152606481fd5b60006001600160401b03821115610e2f57610e2f610183565b5060051b60200190565b6040518154600090610e4a8161073a565b80845260018281168015610e655760018114610e7a57610eab565b60ff1984166020870152604086019450610eab565b8660005260208060002060005b85811015610ea2578154898201840152908401908201610e87565b88019091019550505b5050505061076f828203836101be565b60006001600160a01b03821633811480610eed5781600052600260205260ff610ee8336040600020610706565b541690505b610ef681610dd4565b50506000338152602081815260408083208054610f1281610e16565b8351610f1e82826101be565b8281529286525083852091848101905b82871015610f8e578451610f4181610199565b610f4a85610e39565b8152610f5860018601610e39565b87820152610f6860028601610e39565b818701526003850154606082015282526001969096019560049093019290850190610f2e565b98975050505050505050565b60006001600160a01b03821633811480610fcc5781600052600260205260ff610fc7336040600020610706565b541690505b610fd581610dd4565b505033600052600160208181526040806000208054610ff381610e16565b8351610fff82826101be565b82815260009384528584209386820192505b838110156110d857611021610212565b61102a86610e39565b81526110516110428a8801546001600160a01b031690565b6001600160a01b0316828a0152565b61105d60028701610e39565b8782015261108861107860038801546001600160a01b031690565b6001600160a01b03166060830152565b61109460048701610e39565b60808201526110a560058701610e39565b60a08201526110b660068701610e39565b60c0820152600786015460e08201528352600890940193918601918701611011565b5098975050505050505050565b600081546110f281610e16565b6040805161110083826101be565b838152600086815260208082209296508087019450905b8581101561116d5783518481018181106001600160401b038211171561113f5761113f610183565b855283546001600160a01b038116825260a01c60ff1615158382015285529381019360019283019201611117565b50505050505091905056fea36469706673582212201be8586492c6b0f1735d9a0fcbc499644c59aa4d846dcf5637d908dc40b4c1e96c6578706572696d656e74616cf564736f6c63430008090041","opcodes":"PUSH1 0x80 PUSH1 0x40 MSTORE CALLVALUE ISZERO PUSH2 0xF JUMPI PUSH1 0x0 DUP1 REVERT JUMPDEST PUSH2 0x11BC DUP1 PUSH2 0x1F PUSH1 0x80 CODECOPY DUP1 PUSH1 0x80 RETURN INVALID PUSH1 0x40 PUSH1 0x80 DUP2 MSTORE PUSH1 0x4 CALLDATASIZE LT PUSH2 0x17D JUMPI PUSH1 0x0 DUP1 CALLDATALOAD PUSH1 0xE0 SHR PUSH4 0x2350F40D DUP2 EQ PUSH2 0x66 JUMPI PUSH4 0x36A8915B DUP2 EQ PUSH2 0x94 JUMPI PUSH4 0x4F56E85C DUP2 EQ PUSH2 0xBA JUMPI PUSH4 0x8DE84B8C DUP2 EQ PUSH2 0xEF JUMPI PUSH4 0xA9ED9CB8 DUP2 EQ PUSH2 0x117 JUMPI PUSH4 0xC924B476 DUP2 EQ PUSH2 0x137 JUMPI PUSH4 0xFF9913E8 DUP2 EQ PUSH2 0x15F JUMPI PUSH2 0x17A JUMP JUMPDEST CALLVALUE ISZERO PUSH2 0x70 JUMPI DUP2 DUP3 REVERT JUMPDEST PUSH2 0x79 CALLDATASIZE PUSH2 0x2DB JUMP JUMPDEST PUSH2 0x88 DUP2 DUP4 DUP6 DUP8 DUP10 DUP12 DUP14 PUSH2 0x9FA JUMP JUMPDEST POP POP POP POP POP POP POP DUP2 DUP4 MLOAD RETURN JUMPDEST CALLVALUE ISZERO PUSH2 0x9E JUMPI DUP2 DUP3 REVERT JUMPDEST PUSH2 0xA7 CALLDATASIZE PUSH2 0x3BE JUMP JUMPDEST PUSH2 0xB2 DUP2 DUP4 DUP6 PUSH2 0x883 JUMP JUMPDEST POP POP POP DUP2 DUP4 MLOAD RETURN JUMPDEST CALLVALUE ISZERO PUSH2 0xC4 JUMPI DUP2 DUP3 REVERT JUMPDEST PUSH2 0xCD CALLDATASIZE PUSH2 0x445 JUMP JUMPDEST PUSH2 0xDE PUSH2 0xD9 CALLER PUSH2 0x6EC JUMP JUMPDEST PUSH2 0x10E5 JUMP JUMPDEST DUP4 MLOAD DUP1 PUSH2 0xEB DUP4 DUP4 PUSH2 0x45A JUMP JUMPDEST SUB DUP2 RETURN JUMPDEST CALLVALUE ISZERO PUSH2 0xF9 JUMPI DUP2 DUP3 REVERT JUMPDEST PUSH2 0x10A PUSH2 0x105 CALLDATASIZE PUSH2 0x4B4 JUMP JUMPDEST PUSH2 0xEBB JUMP JUMPDEST DUP4 MLOAD DUP1 PUSH2 0xEB DUP4 DUP4 PUSH2 0x533 JUMP JUMPDEST CALLVALUE ISZERO PUSH2 0x121 JUMPI DUP2 DUP3 REVERT JUMPDEST PUSH2 0x132 PUSH2 0x12D CALLDATASIZE PUSH2 0x4B4 JUMP JUMPDEST PUSH2 0xD4D JUMP JUMPDEST DUP2 DUP4 MLOAD RETURN JUMPDEST CALLVALUE ISZERO PUSH2 0x141 JUMPI DUP2 DUP3 REVERT JUMPDEST PUSH2 0x152 PUSH2 0x14D CALLDATASIZE PUSH2 0x4B4 JUMP JUMPDEST PUSH2 0xF9A JUMP JUMPDEST DUP4 MLOAD DUP1 PUSH2 0xEB DUP4 DUP4 PUSH2 0x5DF JUMP JUMPDEST CALLVALUE ISZERO PUSH2 0x169 JUMPI DUP2 DUP3 REVERT JUMPDEST PUSH2 0x132 PUSH2 0x175 CALLDATASIZE PUSH2 0x4B4 JUMP JUMPDEST PUSH2 0xC10 JUMP JUMPDEST POP POP JUMPDEST POP PUSH1 0x0 DUP1 REVERT JUMPDEST PUSH4 0x4E487B71 PUSH1 0xE0 SHL PUSH1 0x0 MSTORE PUSH1 0x41 PUSH1 0x4 MSTORE PUSH1 0x24 PUSH1 0x0 REVERT JUMPDEST PUSH1 0x80 DUP2 ADD DUP2 DUP2 LT PUSH1 0x1 PUSH1 0x1 PUSH1 0x40 SHL SUB DUP3 GT OR ISZERO PUSH2 0x1B8 JUMPI PUSH2 0x1B8 PUSH2 0x183 JUMP JUMPDEST PUSH1 0x40 MSTORE POP JUMP JUMPDEST PUSH1 0x1F DUP3 ADD PUSH1 0x1F NOT AND DUP2 ADD PUSH1 0x1 PUSH1 0x1 PUSH1 0x40 SHL SUB DUP2 GT DUP3 DUP3 LT OR ISZERO PUSH2 0x1E3 JUMPI PUSH2 0x1E3 PUSH2 0x183 JUMP JUMPDEST PUSH1 0x40 MSTORE POP POP JUMP JUMPDEST PUSH1 0x40 DUP1 MLOAD SWAP1 DUP2 ADD PUSH1 0x1 PUSH1 0x1 PUSH1 0x40 SHL SUB DUP2 GT DUP3 DUP3 LT OR ISZERO PUSH2 0x20C JUMPI PUSH2 0x20C PUSH2 0x183 JUMP JUMPDEST PUSH1 0x40 MSTORE SWAP1 JUMP JUMPDEST PUSH1 0x40 MLOAD PUSH2 0x100 DUP2 ADD PUSH1 0x1 PUSH1 0x1 PUSH1 0x40 SHL SUB DUP2 GT DUP3 DUP3 LT OR ISZERO PUSH2 0x20C JUMPI PUSH2 0x20C PUSH2 0x183 JUMP JUMPDEST PUSH1 0x0 DUP3 PUSH1 0x1F DUP4 ADD SLT PUSH2 0x246 JUMPI PUSH1 0x0 DUP1 REVERT JUMPDEST DUP2 CALLDATALOAD PUSH1 0x1 PUSH1 0x1 PUSH1 0x40 SHL SUB DUP2 GT ISZERO PUSH2 0x25F JUMPI PUSH2 0x25F PUSH2 0x183 JUMP JUMPDEST PUSH1 0x40 MLOAD PUSH2 0x276 PUSH1 0x1F DUP4 ADD PUSH1 0x1F NOT AND PUSH1 0x20 ADD DUP3 PUSH2 0x1BE JUMP JUMPDEST DUP2 DUP2 MSTORE DUP5 PUSH1 0x20 DUP4 DUP7 ADD ADD GT ISZERO PUSH2 0x28B JUMPI PUSH1 0x0 DUP1 REVERT JUMPDEST DUP2 PUSH1 0x20 DUP6 ADD PUSH1 0x20 DUP4 ADD CALLDATACOPY PUSH1 0x0 SWAP2 DUP2 ADD PUSH1 0x20 ADD SWAP2 SWAP1 SWAP2 MSTORE SWAP4 SWAP3 POP POP POP JUMP JUMPDEST PUSH1 0x24 CALLDATALOAD PUSH1 0x1 PUSH1 0x1 PUSH1 0xA0 SHL SUB DUP2 AND DUP2 EQ PUSH2 0x2C0 JUMPI PUSH1 0x0 DUP1 REVERT JUMPDEST SWAP1 JUMP JUMPDEST PUSH1 0x64 CALLDATALOAD PUSH1 0x1 PUSH1 0x1 PUSH1 0xA0 SHL SUB DUP2 AND DUP2 EQ PUSH2 0x2C0 JUMPI PUSH1 0x0 DUP1 REVERT JUMPDEST PUSH1 0x0 DUP1 DUP1 DUP1 DUP1 DUP1 DUP1 PUSH1 0xE0 PUSH1 0x3 NOT DUP10 ADD SLT ISZERO PUSH2 0x2F5 JUMPI PUSH1 0x0 DUP1 REVERT JUMPDEST PUSH1 0x4 DUP1 CALLDATALOAD PUSH1 0x1 PUSH1 0x1 PUSH1 0x40 SHL SUB DUP1 DUP3 GT ISZERO PUSH2 0x30E JUMPI PUSH1 0x0 DUP1 REVERT JUMPDEST PUSH2 0x31A DUP12 DUP4 DUP6 ADD PUSH2 0x235 JUMP JUMPDEST SWAP10 POP PUSH2 0x324 PUSH2 0x2A8 JUMP JUMPDEST SWAP9 POP PUSH1 0x44 CALLDATALOAD SWAP2 POP DUP1 DUP3 GT ISZERO PUSH2 0x338 JUMPI PUSH1 0x0 DUP1 REVERT JUMPDEST PUSH2 0x344 DUP12 DUP4 DUP6 ADD PUSH2 0x235 JUMP JUMPDEST SWAP8 POP PUSH2 0x34E PUSH2 0x2C3 JUMP JUMPDEST SWAP7 POP PUSH1 0x84 CALLDATALOAD SWAP2 POP DUP1 DUP3 GT ISZERO PUSH2 0x362 JUMPI PUSH1 0x0 DUP1 REVERT JUMPDEST PUSH2 0x36E DUP12 DUP4 DUP6 ADD PUSH2 0x235 JUMP JUMPDEST SWAP6 POP PUSH1 0xA4 CALLDATALOAD SWAP2 POP DUP1 DUP3 GT ISZERO PUSH2 0x382 JUMPI PUSH1 0x0 DUP1 REVERT JUMPDEST PUSH2 0x38E DUP12 DUP4 DUP6 ADD PUSH2 0x235 JUMP JUMPDEST SWAP5 POP PUSH1 0xC4 CALLDATALOAD SWAP2 POP DUP1 DUP3 GT ISZERO PUSH2 0x3A2 JUMPI PUSH1 0x0 DUP1 REVERT JUMPDEST POP PUSH2 0x3AF DUP11 DUP3 DUP5 ADD PUSH2 0x235 JUMP JUMPDEST SWAP3 POP POP POP SWAP2 SWAP4 SWAP6 SWAP8 SWAP1 SWAP3 SWAP5 SWAP7 POP JUMP JUMPDEST PUSH1 0x0 DUP1 DUP1 PUSH1 0x60 PUSH1 0x3 NOT DUP6 ADD SLT ISZERO PUSH2 0x3D4 JUMPI PUSH1 0x0 DUP1 REVERT JUMPDEST PUSH1 0x4 CALLDATALOAD PUSH1 0x1 PUSH1 0x1 PUSH1 0x40 SHL SUB DUP1 DUP3 GT ISZERO PUSH2 0x3EC JUMPI PUSH1 0x0 DUP1 REVERT JUMPDEST PUSH2 0x3F9 DUP7 DUP4 PUSH1 0x4 ADD PUSH2 0x235 JUMP JUMPDEST SWAP5 POP PUSH1 0x24 CALLDATALOAD SWAP2 POP DUP1 DUP3 GT ISZERO PUSH2 0x40D JUMPI PUSH1 0x0 DUP1 REVERT JUMPDEST PUSH2 0x41A DUP7 DUP4 PUSH1 0x4 ADD PUSH2 0x235 JUMP JUMPDEST SWAP4 POP PUSH1 0x44 CALLDATALOAD SWAP2 POP DUP1 DUP3 GT ISZERO PUSH2 0x42E JUMPI PUSH1 0x0 DUP1 REVERT JUMPDEST POP PUSH2 0x43C DUP6 DUP3 PUSH1 0x4 ADD PUSH2 0x235 JUMP JUMPDEST SWAP4 SWAP6 SWAP3 SWAP5 POP POP POP JUMP JUMPDEST PUSH1 0x0 PUSH1 0x3 NOT DUP3 ADD SLT ISZERO PUSH2 0x457 JUMPI PUSH1 0x0 DUP1 REVERT JUMPDEST POP JUMP JUMPDEST PUSH1 0x20 DUP1 DUP3 MSTORE DUP3 MLOAD DUP3 DUP3 ADD DUP2 SWAP1 MSTORE PUSH1 0x0 SWAP2 SWAP1 PUSH1 0x40 SWAP1 DUP2 DUP6 ADD SWAP1 DUP7 DUP5 ADD DUP6 JUMPDEST DUP3 DUP2 LT ISZERO PUSH2 0x4A7 JUMPI DUP2 MLOAD DUP1 MLOAD PUSH1 0x1 PUSH1 0x1 PUSH1 0xA0 SHL SUB AND DUP6 MSTORE DUP7 ADD MLOAD ISZERO ISZERO DUP7 DUP6 ADD MSTORE SWAP3 DUP5 ADD SWAP3 SWAP1 DUP6 ADD SWAP1 PUSH1 0x1 ADD PUSH2 0x477 JUMP JUMPDEST POP SWAP2 SWAP8 SWAP7 POP POP POP POP POP POP POP JUMP JUMPDEST PUSH1 0x0 PUSH1 0x20 PUSH1 0x3 NOT DUP4 ADD SLT ISZERO PUSH2 0x4C8 JUMPI PUSH1 0x0 DUP1 REVERT JUMPDEST PUSH1 0x4 CALLDATALOAD PUSH1 0x1 PUSH1 0x1 PUSH1 0xA0 SHL SUB DUP2 AND DUP2 EQ PUSH2 0x4E0 JUMPI PUSH1 0x0 DUP1 REVERT JUMPDEST SWAP3 SWAP2 POP POP JUMP JUMPDEST PUSH1 0x0 DUP2 MLOAD DUP1 DUP5 MSTORE PUSH1 0x0 JUMPDEST DUP2 DUP2 LT ISZERO PUSH2 0x50C JUMPI PUSH1 0x20 DUP2 DUP6 ADD DUP2 ADD MLOAD DUP7 DUP4 ADD DUP3 ADD MSTORE ADD PUSH2 0x4F0 JUMP JUMPDEST DUP2 DUP2 GT ISZERO PUSH2 0x51E JUMPI PUSH1 0x0 PUSH1 0x20 DUP4 DUP8 ADD ADD MSTORE JUMPDEST POP PUSH1 0x1F ADD PUSH1 0x1F NOT AND SWAP3 SWAP1 SWAP3 ADD PUSH1 0x20 ADD SWAP3 SWAP2 POP POP JUMP JUMPDEST PUSH1 0x0 PUSH1 0x20 DUP1 DUP4 ADD DUP2 DUP5 MSTORE DUP1 DUP6 MLOAD DUP1 DUP4 MSTORE PUSH1 0x40 SWAP3 POP DUP3 DUP7 ADD SWAP2 POP DUP3 DUP2 PUSH1 0x5 SHL DUP8 ADD ADD DUP5 DUP9 ADD PUSH1 0x0 JUMPDEST DUP4 DUP2 LT ISZERO PUSH2 0x5D1 JUMPI DUP9 DUP4 SUB PUSH1 0x3F NOT ADD DUP6 MSTORE DUP2 MLOAD DUP1 MLOAD PUSH1 0x80 DUP1 DUP7 MSTORE PUSH2 0x580 DUP2 DUP8 ADD DUP4 PUSH2 0x4E6 JUMP JUMPDEST SWAP2 POP POP DUP9 DUP3 ADD MLOAD DUP6 DUP3 SUB DUP11 DUP8 ADD MSTORE PUSH2 0x598 DUP3 DUP3 PUSH2 0x4E6 JUMP JUMPDEST SWAP2 POP POP DUP8 DUP3 ADD MLOAD DUP6 DUP3 SUB DUP10 DUP8 ADD MSTORE PUSH2 0x5B0 DUP3 DUP3 PUSH2 0x4E6 JUMP JUMPDEST PUSH1 0x60 SWAP4 DUP5 ADD MLOAD SWAP7 SWAP1 SWAP4 ADD SWAP6 SWAP1 SWAP6 MSTORE POP SWAP5 DUP8 ADD SWAP5 SWAP3 POP SWAP1 DUP7 ADD SWAP1 PUSH1 0x1 ADD PUSH2 0x55A JUMP JUMPDEST POP SWAP1 SWAP9 SWAP8 POP POP POP POP POP POP POP POP JUMP JUMPDEST PUSH1 0x0 PUSH1 0x20 DUP1 DUP4 ADD DUP2 DUP5 MSTORE DUP1 DUP6 MLOAD DUP1 DUP4 MSTORE PUSH1 0x40 SWAP3 POP DUP3 DUP7 ADD SWAP2 POP DUP3 DUP2 PUSH1 0x5 SHL DUP8 ADD ADD DUP5 DUP9 ADD PUSH1 0x0 JUMPDEST DUP4 DUP2 LT ISZERO PUSH2 0x5D1 JUMPI DUP9 DUP4 SUB PUSH1 0x3F NOT ADD DUP6 MSTORE DUP2 MLOAD DUP1 MLOAD PUSH2 0x100 DUP1 DUP7 MSTORE PUSH2 0x62D DUP2 DUP8 ADD DUP4 PUSH2 0x4E6 JUMP JUMPDEST SWAP2 POP POP DUP9 DUP3 ADD MLOAD PUSH2 0x648 DUP11 DUP8 ADD DUP3 PUSH1 0x1 PUSH1 0x1 PUSH1 0xA0 SHL SUB AND SWAP1 MSTORE JUMP JUMPDEST POP DUP8 DUP3 ADD MLOAD DUP6 DUP3 SUB DUP10 DUP8 ADD MSTORE PUSH2 0x65E DUP3 DUP3 PUSH2 0x4E6 JUMP JUMPDEST SWAP2 POP POP PUSH1 0x60 DUP1 DUP4 ADD MLOAD PUSH2 0x67B DUP3 DUP9 ADD DUP3 PUSH1 0x1 PUSH1 0x1 PUSH1 0xA0 SHL SUB AND SWAP1 MSTORE JUMP JUMPDEST POP POP PUSH1 0x80 DUP1 DUP4 ADD MLOAD DUP7 DUP4 SUB DUP3 DUP9 ADD MSTORE PUSH2 0x694 DUP4 DUP3 PUSH2 0x4E6 JUMP JUMPDEST SWAP3 POP POP POP PUSH1 0xA0 DUP1 DUP4 ADD MLOAD DUP7 DUP4 SUB DUP3 DUP9 ADD MSTORE PUSH2 0x6AF DUP4 DUP3 PUSH2 0x4E6 JUMP JUMPDEST SWAP3 POP POP POP PUSH1 0xC0 DUP1 DUP4 ADD MLOAD DUP7 DUP4 SUB DUP3 DUP9 ADD MSTORE PUSH2 0x6CA DUP4 DUP3 PUSH2 0x4E6 JUMP JUMPDEST PUSH1 0xE0 SWAP5 DUP6 ADD MLOAD SWAP8 SWAP1 SWAP5 ADD SWAP7 SWAP1 SWAP7 MSTORE POP POP SWAP5 DUP8 ADD SWAP5 SWAP3 POP SWAP1 DUP7 ADD SWAP1 PUSH1 0x1 ADD PUSH2 0x606 JUMP JUMPDEST PUSH1 0x1 PUSH1 0x1 PUSH1 0xA0 SHL SUB AND PUSH1 0x0 SWAP1 DUP2 MSTORE PUSH1 0x3 PUSH1 0x20 MSTORE PUSH1 0x40 SWAP1 KECCAK256 SWAP1 JUMP JUMPDEST PUSH1 0x1 PUSH1 0x1 PUSH1 0xA0 SHL SUB SWAP2 SWAP1 SWAP2 AND PUSH1 0x0 SWAP1 DUP2 MSTORE PUSH1 0x20 SWAP2 SWAP1 SWAP2 MSTORE PUSH1 0x40 SWAP1 KECCAK256 SWAP1 JUMP JUMPDEST PUSH4 0x4E487B71 PUSH1 0xE0 SHL PUSH1 0x0 MSTORE PUSH1 0x32 PUSH1 0x4 MSTORE PUSH1 0x24 PUSH1 0x0 REVERT JUMPDEST PUSH1 0x1 DUP2 DUP2 SHR SWAP1 DUP3 AND DUP1 PUSH2 0x74E JUMPI PUSH1 0x7F DUP3 AND SWAP2 POP JUMPDEST PUSH1 0x20 DUP3 LT DUP2 EQ ISZERO PUSH2 0x76F JUMPI PUSH4 0x4E487B71 PUSH1 0xE0 SHL PUSH1 0x0 MSTORE PUSH1 0x22 PUSH1 0x4 MSTORE PUSH1 0x24 PUSH1 0x0 REVERT JUMPDEST POP SWAP2 SWAP1 POP JUMP JUMPDEST PUSH1 0x1F DUP3 GT ISZERO PUSH2 0x7BF JUMPI PUSH1 0x0 DUP2 DUP2 MSTORE PUSH1 0x20 DUP2 KECCAK256 PUSH1 0x1F DUP6 ADD PUSH1 0x5 SHR DUP2 ADD PUSH1 0x20 DUP7 LT ISZERO PUSH2 0x79C JUMPI POP DUP1 JUMPDEST PUSH1 0x1F DUP6 ADD PUSH1 0x5 SHR DUP3 ADD SWAP2 POP JUMPDEST DUP2 DUP2 LT ISZERO PUSH2 0x7BB JUMPI DUP3 DUP2 SSTORE PUSH1 0x1 ADD PUSH2 0x7A8 JUMP JUMPDEST POP POP POP JUMPDEST POP POP POP JUMP JUMPDEST DUP2 MLOAD PUSH1 0x1 PUSH1 0x1 PUSH1 0x40 SHL SUB DUP2 GT ISZERO PUSH2 0x7DD JUMPI PUSH2 0x7DD PUSH2 0x183 JUMP JUMPDEST PUSH2 0x7F1 DUP2 PUSH2 0x7EB DUP5 SLOAD PUSH2 0x73A JUMP JUMPDEST DUP5 PUSH2 0x775 JUMP JUMPDEST PUSH1 0x20 DUP1 PUSH1 0x1F DUP4 GT PUSH1 0x1 DUP2 EQ PUSH2 0x826 JUMPI PUSH1 0x0 DUP5 ISZERO PUSH2 0x80E JUMPI POP DUP6 DUP4 ADD MLOAD JUMPDEST PUSH1 0x0 NOT PUSH1 0x3 DUP7 SWAP1 SHL SHR NOT AND PUSH1 0x1 DUP6 SWAP1 SHL OR DUP6 SSTORE PUSH2 0x7BB JUMP JUMPDEST PUSH1 0x0 DUP6 DUP2 MSTORE PUSH1 0x20 DUP2 KECCAK256 PUSH1 0x1F NOT DUP7 AND SWAP2 JUMPDEST DUP3 DUP2 LT ISZERO PUSH2 0x855 JUMPI DUP9 DUP7 ADD MLOAD DUP3 SSTORE SWAP5 DUP5 ADD SWAP5 PUSH1 0x1 SWAP1 SWAP2 ADD SWAP1 DUP5 ADD PUSH2 0x836 JUMP JUMPDEST POP DUP6 DUP3 LT ISZERO PUSH2 0x873 JUMPI DUP8 DUP6 ADD MLOAD PUSH1 0x0 NOT PUSH1 0x3 DUP9 SWAP1 SHL PUSH1 0xF8 AND SHR NOT AND DUP2 SSTORE JUMPDEST POP POP POP POP POP PUSH1 0x1 SWAP1 DUP2 SHL ADD SWAP1 SSTORE POP JUMP JUMPDEST PUSH1 0x40 MLOAD PUSH2 0x88F DUP2 PUSH2 0x199 JUMP JUMPDEST DUP2 DUP2 MSTORE PUSH1 0x20 DUP1 DUP3 ADD DUP5 DUP2 MSTORE PUSH1 0x40 DUP4 ADD DUP7 DUP2 MSTORE PUSH1 0x60 DUP5 ADD TIMESTAMP DUP2 MSTORE PUSH1 0x0 CALLER DUP2 MSTORE DUP1 DUP6 MSTORE PUSH1 0x40 DUP2 KECCAK256 DUP1 SLOAD PUSH1 0x1 PUSH1 0x40 SHL DUP2 LT PUSH2 0x8C9 JUMPI PUSH2 0x8C9 PUSH2 0x183 JUMP JUMPDEST PUSH1 0x1 DUP1 DUP3 ADD DUP1 DUP5 SSTORE DUP1 DUP4 LT PUSH2 0x8E0 JUMPI PUSH2 0x8E0 PUSH2 0x724 JUMP JUMPDEST POP SWAP2 DUP4 MSTORE DUP7 DUP4 KECCAK256 SWAP8 MLOAD DUP1 MLOAD SWAP1 SWAP9 PUSH1 0x2 SWAP3 SWAP1 SWAP3 SHL SWAP1 SWAP2 ADD SWAP2 PUSH1 0x1 PUSH1 0x1 PUSH1 0x40 SHL SUB DUP3 GT ISZERO PUSH2 0x90E JUMPI PUSH2 0x90E PUSH2 0x183 JUMP JUMPDEST PUSH2 0x922 DUP3 PUSH2 0x91C DUP6 SLOAD PUSH2 0x73A JUMP JUMPDEST DUP6 PUSH2 0x775 JUMP JUMPDEST DUP8 PUSH1 0x1F DUP4 GT PUSH1 0x1 DUP2 EQ PUSH2 0x952 JUMPI DUP6 DUP5 ISZERO PUSH2 0x93C JUMPI POP DUP11 DUP3 ADD MLOAD JUMPDEST PUSH1 0x0 NOT PUSH1 0x3 DUP7 SWAP1 SHL SHR NOT AND DUP5 DUP5 SHL OR DUP6 SSTORE PUSH2 0x9A8 JUMP JUMPDEST PUSH1 0x0 DUP6 DUP2 MSTORE PUSH1 0x20 SWAP1 KECCAK256 PUSH1 0x1F NOT DUP6 AND SWAP1 DUP8 JUMPDEST DUP3 DUP2 LT ISZERO PUSH2 0x980 JUMPI DUP14 DUP6 ADD MLOAD DUP3 SSTORE SWAP4 DUP13 ADD SWAP4 SWAP1 DUP6 ADD SWAP1 DUP13 ADD PUSH2 0x963 JUMP JUMPDEST POP DUP6 DUP3 LT ISZERO PUSH2 0x99E JUMPI DUP13 DUP5 ADD MLOAD PUSH1 0x0 NOT PUSH1 0x3 DUP9 SWAP1 SHL PUSH1 0xF8 AND SHR NOT AND DUP2 SSTORE JUMPDEST POP POP DUP3 DUP5 DUP5 SHL ADD DUP6 SSTORE JUMPDEST POP POP PUSH2 0x9B7 DUP8 MLOAD DUP3 DUP6 ADD PUSH2 0x7C4 JUMP JUMPDEST POP POP PUSH2 0x9C7 DUP5 MLOAD PUSH1 0x2 DUP4 ADD PUSH2 0x7C4 JUMP JUMPDEST DUP3 MLOAD PUSH1 0x3 DUP3 ADD SSTORE POP POP POP POP POP POP POP POP POP POP JUMP JUMPDEST DUP1 SLOAD PUSH1 0x1 PUSH1 0x1 PUSH1 0xA0 SHL SUB NOT AND PUSH1 0x1 PUSH1 0x1 PUSH1 0xA0 SHL SUB SWAP3 SWAP1 SWAP3 AND SWAP2 SWAP1 SWAP2 OR SWAP1 SSTORE JUMP JUMPDEST PUSH1 0x40 MLOAD PUSH2 0x100 DUP2 ADD DUP2 DUP2 LT PUSH1 0x1 PUSH1 0x1 PUSH1 0x40 SHL SUB DUP3 GT OR ISZERO PUSH2 0xA1D JUMPI PUSH2 0xA1D PUSH2 0x183 JUMP JUMPDEST DUP1 PUSH1 0x40 MSTORE POP DUP2 DUP2 MSTORE PUSH1 0x20 DUP2 ADD PUSH1 0x1 DUP1 PUSH1 0xA0 SHL SUB DUP1 DUP6 AND DUP3 MSTORE PUSH1 0x40 DUP4 ADD DUP7 DUP2 MSTORE PUSH1 0x60 DUP5 ADD DUP3 DUP10 AND DUP2 MSTORE PUSH1 0x80 DUP6 ADD SWAP3 POP DUP10 DUP4 MSTORE PUSH1 0xA0 DUP6 ADD DUP13 DUP2 MSTORE PUSH1 0xC0 DUP7 ADD DUP13 DUP2 MSTORE PUSH1 0xE0 DUP8 ADD TIMESTAMP DUP2 MSTORE CALLER PUSH1 0x0 MSTORE PUSH1 0x1 PUSH1 0x20 MSTORE PUSH1 0x40 PUSH1 0x0 KECCAK256 DUP1 SLOAD PUSH1 0x1 PUSH1 0x40 SHL DUP2 LT PUSH2 0xA86 JUMPI PUSH2 0xA86 PUSH2 0x183 JUMP JUMPDEST PUSH1 0x1 DUP2 ADD DUP1 DUP4 SSTORE DUP1 DUP3 LT PUSH2 0xA9C JUMPI PUSH2 0xA9C PUSH2 0x724 JUMP JUMPDEST POP DUP2 PUSH1 0x0 MSTORE PUSH1 0x20 PUSH1 0x0 KECCAK256 SWAP2 POP DUP1 PUSH1 0x3 SHL DUP3 ADD SWAP2 POP POP PUSH2 0xABC DUP10 MLOAD DUP3 PUSH2 0x7C4 JUMP JUMPDEST PUSH2 0xAD9 PUSH2 0xAD0 DUP10 MLOAD PUSH1 0x1 PUSH1 0x1 PUSH1 0xA0 SHL SUB AND SWAP1 JUMP JUMPDEST PUSH1 0x1 DUP4 ADD PUSH2 0x9DA JUMP JUMPDEST PUSH2 0xAE7 DUP7 MLOAD PUSH1 0x2 DUP4 ADD PUSH2 0x7C4 JUMP JUMPDEST PUSH2 0xB04 PUSH2 0xAFB DUP7 MLOAD PUSH1 0x1 PUSH1 0x1 PUSH1 0xA0 SHL SUB AND SWAP1 JUMP JUMPDEST PUSH1 0x3 DUP4 ADD PUSH2 0x9DA JUMP JUMPDEST PUSH2 0xB12 DUP8 MLOAD PUSH1 0x4 DUP4 ADD PUSH2 0x7C4 JUMP JUMPDEST PUSH2 0xB20 DUP5 MLOAD PUSH1 0x5 DUP4 ADD PUSH2 0x7C4 JUMP JUMPDEST PUSH2 0xB2E DUP4 MLOAD PUSH1 0x6 DUP4 ADD PUSH2 0x7C4 JUMP JUMPDEST DUP2 MLOAD PUSH1 0x7 DUP3 ADD SSTORE POP POP POP POP POP POP POP POP POP POP POP POP POP POP POP POP JUMP JUMPDEST PUSH1 0x0 DUP1 DUP3 SLOAD DUP5 LT PUSH2 0xB5A JUMPI PUSH2 0xB5A PUSH2 0x724 JUMP JUMPDEST POP POP PUSH1 0x0 SWAP1 DUP2 MSTORE PUSH1 0x20 DUP2 KECCAK256 SWAP1 SWAP2 ADD SWAP2 JUMP JUMPDEST DUP1 SLOAD PUSH1 0x1 PUSH1 0x40 SHL DUP2 LT PUSH2 0xB80 JUMPI PUSH2 0xB80 PUSH2 0x183 JUMP JUMPDEST PUSH1 0x1 DUP2 ADD DUP3 SSTORE PUSH2 0xB90 DUP2 DUP4 PUSH2 0xB47 JUMP JUMPDEST SWAP2 POP DUP2 ISZERO PUSH2 0xBAE JUMPI PUSH4 0x4E487B71 PUSH1 0xE0 SHL PUSH1 0x0 MSTORE PUSH1 0x0 PUSH1 0x4 MSTORE PUSH1 0x24 PUSH1 0x0 REVERT JUMPDEST DUP4 MLOAD PUSH2 0xBC3 SWAP1 PUSH1 0x1 PUSH1 0x1 PUSH1 0xA0 SHL SUB AND DUP3 PUSH2 0x9DA JUMP JUMPDEST PUSH1 0x20 SWAP4 SWAP1 SWAP4 ADD MLOAD DUP4 SLOAD PUSH1 0xFF PUSH1 0xA0 SHL NOT AND SWAP1 ISZERO ISZERO PUSH1 0xA0 SHL PUSH1 0xFF PUSH1 0xA0 SHL AND OR SWAP1 SWAP3 SSTORE POP POP JUMP JUMPDEST PUSH1 0x0 PUSH1 0x0 NOT DUP3 EQ ISZERO PUSH2 0xC09 JUMPI PUSH4 0x4E487B71 PUSH1 0xE0 SHL PUSH1 0x0 MSTORE PUSH1 0x11 PUSH1 0x4 MSTORE PUSH1 0x24 PUSH1 0x0 REVERT JUMPDEST POP PUSH1 0x1 ADD SWAP1 JUMP JUMPDEST PUSH2 0xC47 PUSH2 0xC3A DUP3 PUSH2 0xC35 CALLER PUSH1 0x1 PUSH1 0x1 PUSH1 0xA0 SHL SUB AND PUSH1 0x0 SWAP1 DUP2 MSTORE PUSH1 0x2 PUSH1 0x20 MSTORE PUSH1 0x40 SWAP1 KECCAK256 SWAP1 JUMP JUMPDEST PUSH2 0x706 JUMP JUMPDEST DUP1 SLOAD PUSH1 0xFF NOT AND PUSH1 0x1 OR SWAP1 SSTORE JUMP JUMPDEST PUSH2 0xC73 PUSH2 0xC6C DUP3 PUSH2 0xC35 CALLER PUSH1 0x1 PUSH1 0x1 PUSH1 0xA0 SHL SUB AND PUSH1 0x0 SWAP1 DUP2 MSTORE PUSH1 0x4 PUSH1 0x20 MSTORE PUSH1 0x40 SWAP1 KECCAK256 SWAP1 JUMP JUMPDEST SLOAD PUSH1 0xFF AND SWAP1 JUMP JUMPDEST DUP1 ISZERO PUSH2 0xCF4 JUMPI PUSH1 0x0 JUMPDEST PUSH2 0xC85 CALLER PUSH2 0x6EC JUMP JUMPDEST SLOAD DUP2 LT PUSH2 0xC91 JUMPI POP POP POP JUMP JUMPDEST PUSH2 0xCA3 DUP2 PUSH2 0xC9E CALLER PUSH2 0x6EC JUMP JUMPDEST PUSH2 0xB47 JUMP JUMPDEST POP SLOAD PUSH1 0x1 PUSH1 0x1 PUSH1 0xA0 SHL SUB SWAP1 DUP2 AND SWAP1 DUP5 DUP2 AND DUP3 EQ ISZERO PUSH2 0xCE2 JUMPI PUSH2 0xCC8 DUP4 PUSH2 0xC9E CALLER PUSH2 0x6EC JUMP JUMPDEST POP PUSH2 0xCE0 DUP2 DUP1 SLOAD PUSH1 0xFF PUSH1 0xA0 SHL NOT AND PUSH1 0x1 PUSH1 0xA0 SHL OR SWAP1 SSTORE JUMP JUMPDEST POP JUMPDEST POP POP PUSH2 0xCED DUP2 PUSH2 0xBE7 JUMP JUMPDEST SWAP1 POP PUSH2 0xC7C JUMP JUMPDEST PUSH2 0xCFD CALLER PUSH2 0x6EC JUMP JUMPDEST PUSH2 0xD05 PUSH2 0x1EA JUMP JUMPDEST PUSH1 0x1 PUSH1 0x1 PUSH1 0xA0 SHL SUB DUP5 AND DUP2 MSTORE PUSH1 0x1 PUSH1 0x20 DUP3 ADD MSTORE PUSH2 0xD22 DUP2 DUP4 PUSH2 0xB6B JUMP JUMPDEST POP POP PUSH2 0xD49 PUSH2 0xC3A DUP4 PUSH2 0xC35 CALLER PUSH1 0x1 PUSH1 0x1 PUSH1 0xA0 SHL SUB AND PUSH1 0x0 SWAP1 DUP2 MSTORE PUSH1 0x4 PUSH1 0x20 MSTORE PUSH1 0x40 SWAP1 KECCAK256 SWAP1 JUMP JUMPDEST POP POP JUMP JUMPDEST CALLER PUSH1 0x0 MSTORE PUSH1 0x2 PUSH1 0x20 MSTORE PUSH2 0xD64 DUP2 PUSH1 0x40 PUSH1 0x0 KECCAK256 PUSH2 0x706 JUMP JUMPDEST DUP1 SLOAD PUSH1 0xFF NOT AND SWAP1 SSTORE PUSH1 0x0 JUMPDEST PUSH2 0xD78 CALLER PUSH2 0x6EC JUMP JUMPDEST SLOAD DUP2 LT PUSH2 0xD83 JUMPI POP POP JUMP JUMPDEST PUSH2 0xD90 DUP2 PUSH2 0xC9E CALLER PUSH2 0x6EC JUMP JUMPDEST POP SLOAD PUSH1 0x1 PUSH1 0x1 PUSH1 0xA0 SHL SUB SWAP1 DUP2 AND SWAP1 DUP4 DUP2 AND DUP3 EQ ISZERO PUSH2 0xDC2 JUMPI PUSH2 0xDB5 DUP4 PUSH2 0xC9E CALLER PUSH2 0x6EC JUMP JUMPDEST POP DUP1 SLOAD PUSH1 0xFF PUSH1 0xA0 SHL NOT AND SWAP1 SSTORE JUMPDEST POP POP PUSH2 0xDCD DUP2 PUSH2 0xBE7 JUMP JUMPDEST SWAP1 POP PUSH2 0xD6F JUMP JUMPDEST DUP1 PUSH2 0x457 JUMPI PUSH1 0x40 MLOAD PUSH3 0x461BCD PUSH1 0xE5 SHL DUP2 MSTORE PUSH1 0x20 PUSH1 0x4 DUP3 ADD MSTORE PUSH1 0x15 PUSH1 0x24 DUP3 ADD MSTORE PUSH21 0x596F7520646F6E2774206861766520616363657373 PUSH1 0x58 SHL PUSH1 0x44 DUP3 ADD MSTORE PUSH1 0x64 DUP2 REVERT JUMPDEST PUSH1 0x0 PUSH1 0x1 PUSH1 0x1 PUSH1 0x40 SHL SUB DUP3 GT ISZERO PUSH2 0xE2F JUMPI PUSH2 0xE2F PUSH2 0x183 JUMP JUMPDEST POP PUSH1 0x5 SHL PUSH1 0x20 ADD SWAP1 JUMP JUMPDEST PUSH1 0x40 MLOAD DUP2 SLOAD PUSH1 0x0 SWAP1 PUSH2 0xE4A DUP2 PUSH2 0x73A JUMP JUMPDEST DUP1 DUP5 MSTORE PUSH1 0x1 DUP3 DUP2 AND DUP1 ISZERO PUSH2 0xE65 JUMPI PUSH1 0x1 DUP2 EQ PUSH2 0xE7A JUMPI PUSH2 0xEAB JUMP JUMPDEST PUSH1 0xFF NOT DUP5 AND PUSH1 0x20 DUP8 ADD MSTORE PUSH1 0x40 DUP7 ADD SWAP5 POP PUSH2 0xEAB JUMP JUMPDEST DUP7 PUSH1 0x0 MSTORE PUSH1 0x20 DUP1 PUSH1 0x0 KECCAK256 PUSH1 0x0 JUMPDEST DUP6 DUP2 LT ISZERO PUSH2 0xEA2 JUMPI DUP2 SLOAD DUP10 DUP3 ADD DUP5 ADD MSTORE SWAP1 DUP5 ADD SWAP1 DUP3 ADD PUSH2 0xE87 JUMP JUMPDEST DUP9 ADD SWAP1 SWAP2 ADD SWAP6 POP POP JUMPDEST POP POP POP POP PUSH2 0x76F DUP3 DUP3 SUB DUP4 PUSH2 0x1BE JUMP JUMPDEST PUSH1 0x0 PUSH1 0x1 PUSH1 0x1 PUSH1 0xA0 SHL SUB DUP3 AND CALLER DUP2 EQ DUP1 PUSH2 0xEED JUMPI DUP2 PUSH1 0x0 MSTORE PUSH1 0x2 PUSH1 0x20 MSTORE PUSH1 0xFF PUSH2 0xEE8 CALLER PUSH1 0x40 PUSH1 0x0 KECCAK256 PUSH2 0x706 JUMP JUMPDEST SLOAD AND SWAP1 POP JUMPDEST PUSH2 0xEF6 DUP2 PUSH2 0xDD4 JUMP JUMPDEST POP POP PUSH1 0x0 CALLER DUP2 MSTORE PUSH1 0x20 DUP2 DUP2 MSTORE PUSH1 0x40 DUP1 DUP4 KECCAK256 DUP1 SLOAD PUSH2 0xF12 DUP2 PUSH2 0xE16 JUMP JUMPDEST DUP4 MLOAD PUSH2 0xF1E DUP3 DUP3 PUSH2 0x1BE JUMP JUMPDEST DUP3 DUP2 MSTORE SWAP3 DUP7 MSTORE POP DUP4 DUP6 KECCAK256 SWAP2 DUP5 DUP2 ADD SWAP1 JUMPDEST DUP3 DUP8 LT ISZERO PUSH2 0xF8E JUMPI DUP5 MLOAD PUSH2 0xF41 DUP2 PUSH2 0x199 JUMP JUMPDEST PUSH2 0xF4A DUP6 PUSH2 0xE39 JUMP JUMPDEST DUP2 MSTORE PUSH2 0xF58 PUSH1 0x1 DUP7 ADD PUSH2 0xE39 JUMP JUMPDEST DUP8 DUP3 ADD MSTORE PUSH2 0xF68 PUSH1 0x2 DUP7 ADD PUSH2 0xE39 JUMP JUMPDEST DUP2 DUP8 ADD MSTORE PUSH1 0x3 DUP6 ADD SLOAD PUSH1 0x60 DUP3 ADD MSTORE DUP3 MSTORE PUSH1 0x1 SWAP7 SWAP1 SWAP7 ADD SWAP6 PUSH1 0x4 SWAP1 SWAP4 ADD SWAP3 SWAP1 DUP6 ADD SWAP1 PUSH2 0xF2E JUMP JUMPDEST SWAP9 SWAP8 POP POP POP POP POP POP POP POP JUMP JUMPDEST PUSH1 0x0 PUSH1 0x1 PUSH1 0x1 PUSH1 0xA0 SHL SUB DUP3 AND CALLER DUP2 EQ DUP1 PUSH2 0xFCC JUMPI DUP2 PUSH1 0x0 MSTORE PUSH1 0x2 PUSH1 0x20 MSTORE PUSH1 0xFF PUSH2 0xFC7 CALLER PUSH1 0x40 PUSH1 0x0 KECCAK256 PUSH2 0x706 JUMP JUMPDEST SLOAD AND SWAP1 POP JUMPDEST PUSH2 0xFD5 DUP2 PUSH2 0xDD4 JUMP JUMPDEST POP POP CALLER PUSH1 0x0 MSTORE PUSH1 0x1 PUSH1 0x20 DUP2 DUP2 MSTORE PUSH1 0x40 DUP1 PUSH1 0x0 KECCAK256 DUP1 SLOAD PUSH2 0xFF3 DUP2 PUSH2 0xE16 JUMP JUMPDEST DUP4 MLOAD PUSH2 0xFFF DUP3 DUP3 PUSH2 0x1BE JUMP JUMPDEST DUP3 DUP2 MSTORE PUSH1 0x0 SWAP4 DUP5 MSTORE DUP6 DUP5 KECCAK256 SWAP4 DUP7 DUP3 ADD SWAP3 POP JUMPDEST DUP4 DUP2 LT ISZERO PUSH2 0x10D8 JUMPI PUSH2 0x1021 PUSH2 0x212 JUMP JUMPDEST PUSH2 0x102A DUP7 PUSH2 0xE39 JUMP JUMPDEST DUP2 MSTORE PUSH2 0x1051 PUSH2 0x1042 DUP11 DUP9 ADD SLOAD PUSH1 0x1 PUSH1 0x1 PUSH1 0xA0 SHL SUB AND SWAP1 JUMP JUMPDEST PUSH1 0x1 PUSH1 0x1 PUSH1 0xA0 SHL SUB AND DUP3 DUP11 ADD MSTORE JUMP JUMPDEST PUSH2 0x105D PUSH1 0x2 DUP8 ADD PUSH2 0xE39 JUMP JUMPDEST DUP8 DUP3 ADD MSTORE PUSH2 0x1088 PUSH2 0x1078 PUSH1 0x3 DUP9 ADD SLOAD PUSH1 0x1 PUSH1 0x1 PUSH1 0xA0 SHL SUB AND SWAP1 JUMP JUMPDEST PUSH1 0x1 PUSH1 0x1 PUSH1 0xA0 SHL SUB AND PUSH1 0x60 DUP4 ADD MSTORE JUMP JUMPDEST PUSH2 0x1094 PUSH1 0x4 DUP8 ADD PUSH2 0xE39 JUMP JUMPDEST PUSH1 0x80 DUP3 ADD MSTORE PUSH2 0x10A5 PUSH1 0x5 DUP8 ADD PUSH2 0xE39 JUMP JUMPDEST PUSH1 0xA0 DUP3 ADD MSTORE PUSH2 0x10B6 PUSH1 0x6 DUP8 ADD PUSH2 0xE39 JUMP JUMPDEST PUSH1 0xC0 DUP3 ADD MSTORE PUSH1 0x7 DUP7 ADD SLOAD PUSH1 0xE0 DUP3 ADD MSTORE DUP4 MSTORE PUSH1 0x8 SWAP1 SWAP5 ADD SWAP4 SWAP2 DUP7 ADD SWAP2 DUP8 ADD PUSH2 0x1011 JUMP JUMPDEST POP SWAP9 SWAP8 POP POP POP POP POP POP POP POP JUMP JUMPDEST PUSH1 0x0 DUP2 SLOAD PUSH2 0x10F2 DUP2 PUSH2 0xE16 JUMP JUMPDEST PUSH1 0x40 DUP1 MLOAD PUSH2 0x1100 DUP4 DUP3 PUSH2 0x1BE JUMP JUMPDEST DUP4 DUP2 MSTORE PUSH1 0x0 DUP7 DUP2 MSTORE PUSH1 0x20 DUP1 DUP3 KECCAK256 SWAP3 SWAP7 POP DUP1 DUP8 ADD SWAP5 POP SWAP1 JUMPDEST DUP6 DUP2 LT ISZERO PUSH2 0x116D JUMPI DUP4 MLOAD DUP5 DUP2 ADD DUP2 DUP2 LT PUSH1 0x1 PUSH1 0x1 PUSH1 0x40 SHL SUB DUP3 GT OR ISZERO PUSH2 0x113F JUMPI PUSH2 0x113F PUSH2 0x183 JUMP JUMPDEST DUP6 MSTORE DUP4 SLOAD PUSH1 0x1 PUSH1 0x1 PUSH1 0xA0 SHL SUB DUP2 AND DUP3 MSTORE PUSH1 0xA0 SHR PUSH1 0xFF AND ISZERO ISZERO DUP4 DUP3 ADD MSTORE DUP6 MSTORE SWAP4 DUP2 ADD SWAP4 PUSH1 0x1 SWAP3 DUP4 ADD SWAP3 ADD PUSH2 0x1117 JUMP JUMPDEST POP POP POP POP POP POP SWAP2 SWAP1 POP JUMP INVALID LOG3 PUSH5 0x6970667358 0x22 SLT KECCAK256 SHL 0xE8 PC PUSH5 0x92C6B0F173 0x5D SWAP11 0xF 0xCB 0xC4 SWAP10 PUSH5 0x4C59AA4D84 PUSH14 0xCF5637D908DC40B4C1E96C657870 PUSH6 0x72696D656E74 PUSH2 0x6CF5 PUSH5 0x736F6C6343 STOP ADDMOD MULMOD STOP COINBASE "},"methodIdentifiers":{"addDocument(string,string,string)":"36a8915b","allow(address)":"ff9913e8","createPrescription(string,address,string,address,string,string,string)":"2350f40d","disallow(address)":"a9ed9cb8","displayDocument(address)":"8de84b8c","displayPrescription(address)":"c924b476","sharedAccess()":"4f56e85c"}}}}}