{
  "_format": "hh-sol-artifact-1",
  "contractName": "Reward",
  "sourceName": "contracts/Reward.sol",
  "abi": [
    {
      "inputs": [],
      "stateMutability": "nonpayable",
      "type": "constructor"
    },
    {
      "anonymous": false,
      "inputs": [
        {
          "indexed": true,
          "internalType": "address",
          "name": "owner",
          "type": "address"
        },
        {
          "indexed": true,
          "internalType": "address",
          "name": "spender",
          "type": "address"
        },
        {
          "indexed": false,
          "internalType": "uint256",
          "name": "value",
          "type": "uint256"
        }
      ],
      "name": "Approval",
      "type": "event"
    },
    {
      "anonymous": false,
      "inputs": [
        {
          "indexed": true,
          "internalType": "address",
          "name": "previousOwner",
          "type": "address"
        },
        {
          "indexed": true,
          "internalType": "address",
          "name": "newOwner",
          "type": "address"
        }
      ],
      "name": "OwnershipTransferred",
      "type": "event"
    },
    {
      "anonymous": false,
      "inputs": [
        {
          "indexed": true,
          "internalType": "address",
          "name": "from",
          "type": "address"
        },
        {
          "indexed": true,
          "internalType": "address",
          "name": "to",
          "type": "address"
        },
        {
          "indexed": false,
          "internalType": "uint256",
          "name": "value",
          "type": "uint256"
        }
      ],
      "name": "Transfer",
      "type": "event"
    },
    {
      "inputs": [
        {
          "internalType": "address",
          "name": "owner",
          "type": "address"
        },
        {
          "internalType": "address",
          "name": "spender",
          "type": "address"
        }
      ],
      "name": "allowance",
      "outputs": [
        {
          "internalType": "uint256",
          "name": "",
          "type": "uint256"
        }
      ],
      "stateMutability": "view",
      "type": "function"
    },
    {
      "inputs": [
        {
          "internalType": "address",
          "name": "spender",
          "type": "address"
        },
        {
          "internalType": "uint256",
          "name": "amount",
          "type": "uint256"
        }
      ],
      "name": "approve",
      "outputs": [
        {
          "internalType": "bool",
          "name": "",
          "type": "bool"
        }
      ],
      "stateMutability": "nonpayable",
      "type": "function"
    },
    {
      "inputs": [
        {
          "internalType": "address",
          "name": "account",
          "type": "address"
        }
      ],
      "name": "balanceOf",
      "outputs": [
        {
          "internalType": "uint256",
          "name": "",
          "type": "uint256"
        }
      ],
      "stateMutability": "view",
      "type": "function"
    },
    {
      "inputs": [],
      "name": "decimals",
      "outputs": [
        {
          "internalType": "uint8",
          "name": "",
          "type": "uint8"
        }
      ],
      "stateMutability": "view",
      "type": "function"
    },
    {
      "inputs": [
        {
          "internalType": "address",
          "name": "spender",
          "type": "address"
        },
        {
          "internalType": "uint256",
          "name": "subtractedValue",
          "type": "uint256"
        }
      ],
      "name": "decreaseAllowance",
      "outputs": [
        {
          "internalType": "bool",
          "name": "",
          "type": "bool"
        }
      ],
      "stateMutability": "nonpayable",
      "type": "function"
    },
    {
      "inputs": [
        {
          "internalType": "address",
          "name": "_address",
          "type": "address"
        }
      ],
      "name": "getBalance",
      "outputs": [
        {
          "internalType": "uint256",
          "name": "",
          "type": "uint256"
        }
      ],
      "stateMutability": "view",
      "type": "function"
    },
    {
      "inputs": [
        {
          "internalType": "address",
          "name": "spender",
          "type": "address"
        },
        {
          "internalType": "uint256",
          "name": "addedValue",
          "type": "uint256"
        }
      ],
      "name": "increaseAllowance",
      "outputs": [
        {
          "internalType": "bool",
          "name": "",
          "type": "bool"
        }
      ],
      "stateMutability": "nonpayable",
      "type": "function"
    },
    {
      "inputs": [
        {
          "internalType": "address",
          "name": "to",
          "type": "address"
        },
        {
          "internalType": "uint256",
          "name": "amount",
          "type": "uint256"
        }
      ],
      "name": "mint",
      "outputs": [],
      "stateMutability": "nonpayable",
      "type": "function"
    },
    {
      "inputs": [],
      "name": "name",
      "outputs": [
        {
          "internalType": "string",
          "name": "",
          "type": "string"
        }
      ],
      "stateMutability": "view",
      "type": "function"
    },
    {
      "inputs": [],
      "name": "owner",
      "outputs": [
        {
          "internalType": "address",
          "name": "",
          "type": "address"
        }
      ],
      "stateMutability": "view",
      "type": "function"
    },
    {
      "inputs": [],
      "name": "renounceOwnership",
      "outputs": [],
      "stateMutability": "nonpayable",
      "type": "function"
    },
    {
      "inputs": [],
      "name": "symbol",
      "outputs": [
        {
          "internalType": "string",
          "name": "",
          "type": "string"
        }
      ],
      "stateMutability": "view",
      "type": "function"
    },
    {
      "inputs": [],
      "name": "totalSupply",
      "outputs": [
        {
          "internalType": "uint256",
          "name": "",
          "type": "uint256"
        }
      ],
      "stateMutability": "view",
      "type": "function"
    },
    {
      "inputs": [
        {
          "internalType": "address",
          "name": "to",
          "type": "address"
        },
        {
          "internalType": "uint256",
          "name": "amount",
          "type": "uint256"
        }
      ],
      "name": "transfer",
      "outputs": [
        {
          "internalType": "bool",
          "name": "",
          "type": "bool"
        }
      ],
      "stateMutability": "nonpayable",
      "type": "function"
    },
    {
      "inputs": [
        {
          "internalType": "address",
          "name": "from",
          "type": "address"
        },
        {
          "internalType": "address",
          "name": "to",
          "type": "address"
        },
        {
          "internalType": "uint256",
          "name": "amount",
          "type": "uint256"
        }
      ],
      "name": "transferFrom",
      "outputs": [
        {
          "internalType": "bool",
          "name": "",
          "type": "bool"
        }
      ],
      "stateMutability": "nonpayable",
      "type": "function"
    },
    {
      "inputs": [
        {
          "internalType": "address",
          "name": "newOwner",
          "type": "address"
        }
      ],
      "name": "transferOwnership",
      "outputs": [],
      "stateMutability": "nonpayable",
      "type": "function"
    },
    {
      "inputs": [
        {
          "internalType": "address",
          "name": "_to",
          "type": "address"
        },
        {
          "internalType": "uint256",
          "name": "amount",
          "type": "uint256"
        }
      ],
      "name": "transferTokens",
      "outputs": [
        {
          "internalType": "uint256",
          "name": "",
          "type": "uint256"
        }
      ],
      "stateMutability": "nonpayable",
      "type": "function"
    }
  ],
  "bytecode": "0x608060405234156200001057600080fd5b6200001a6200016a565b6020670845a90cac2d8e8d60c31b81830152620000366200019d565b6210921560ea1b8183015282516001600160401b038111156200005d576200005d62000154565b62000075816200006f600354620001d0565b6200020d565b82601f821160018114620000ac5760008315620000925750858201515b8360011b6000198560031b1c198216176003555062000127565b6003600052601f1983167fc2575a0e9e593c00f959f8c92f12db2869c3395a3b0502d05e2516446f71f85b60005b82811015620000fb57888501518255938701936001909101908701620000da565b50848210156200011a5787840151600019600387901b60f8161c191681555b505060018360011b016003555b5050506200013581620002e3565b5050506200014333620003cf565b604051610de7806200041b83398082f35b634e487b7160e01b600052604160045260246000fd5b6040805160009181016001600160401b038111828210171562000191576200019162000154565b60405260088152919050565b6040805160009181016001600160401b0381118282101715620001c457620001c462000154565b60405260038152919050565b600181811c90821680620001e557607f821691505b602082108114156200020757634e487b7160e01b600052602260045260246000fd5b50919050565b601f8111156200027a57600360009081527fc2575a0e9e593c00f959f8c92f12db2869c3395a3b0502d05e2516446f71f85b601f840160051c81016020851015620002555750805b601f840160051c820191505b81811015620002765782815560010162000261565b5050505b5050565b601f8111156200027a57600460009081527f8a35acfbc15ff81a39ae7d344fd709f28e8600b4aa8c65c6b64bfe7fe36bd19b601f840160051c81016020851015620002555750601f830160051c81019081811015620002765782815560010162000261565b80516001600160401b03811115620002ff57620002ff62000154565b620003178162000311600454620001d0565b6200027e565b602080601f831160018114620003505760008415620003365750848301515b600019600386901b1c1916600185901b1760045562000276565b6004600052601f1984167f8a35acfbc15ff81a39ae7d344fd709f28e8600b4aa8c65c6b64bfe7fe36bd19b60005b828110156200039f578786015182559484019460019091019084016200037e565b5085821015620003be5786850151600019600388901b60f8161c191681555b5050505050600190811b0160045550565b60055460018060a01b0380831660018060a01b0319831617600555828183167f8be0079c531659141344cd1fd0a4f28419497f9722a3daafe3b4186f6b6457e06000604051a350505056fe60406080815260043610610361576000803560e01c6306fdde0381146100d45763095ea7b38114610100576318160ddd8114610133576323b872dd81146101535763313ce567811461018857633950935181146101a6576340c10f1981146101c3576370a0823181146101e75763715018a6811461022257638da5cb5b8114610242576395d89b41811461026e5763a457c2d781146102895763a9059cbb81146102a65763bec3fa1781146102c35763dd62ed3e81146102f45763f2fde38b81146103435763f8b2cb4f81146101e75761035e565b34156100de578182fd5b6100e736610367565b6100ef61066f565b8351806100fc838361037c565b0381f35b341561010a578182fd5b610113366103d1565b61011d8183610808565b9150508351806100fc8383901515815260200190565b341561013d578182fd5b61014636610367565b6002548351818152602081f35b341561015d578182fd5b61016636610409565b610171818385610813565b925050508351806100fc8383901515815260200190565b3415610192578182fd5b61019b36610367565b825160128152602081f35b34156101b0578182fd5b6101b9366103d1565b61011d81836108de565b34156101cd578182fd5b6101d6366103d1565b6101e08183610c12565b5050818351f35b34156101f1578182fd5b6102186101fd3661045c565b6001600160a01b031660009081526020819052604090205490565b8351818152602081f35b341561022c578182fd5b61023536610367565b61023d6104da565b818351f35b341561024c578182fd5b61025536610367565b60055483516001600160a01b0390911680825290602081f35b3415610278578182fd5b61028136610367565b6100ef610739565b3415610293578182fd5b61029c366103d1565b61011d8183610909565b34156102b0578182fd5b6102b9366103d1565b61011d81836107f5565b34156102cd578182fd5b6102d6366103d1565b6102e08183610cac565b9150508351806100fc838390815260200190565b34156102fe578182fd5b6103073661048e565b61032e81610329846001600160a01b0316600090815260016020526040902090565b6107d7565b549150508351806100fc838390815260200190565b341561034d578182fd5b61023d6103593661045c565b610585565b50505b50600080fd5b60006003198201121561037957600080fd5b50565b600060208083528351808285015260005b818110156103a95785810183015185820160400152820161038d565b818111156103bb576000604083870101525b50601f01601f1916929092016040019392505050565b6000806040600319840112156103e657600080fd5b6004356001600160a01b03811681146103fe57600080fd5b936024359350915050565b6000808060606003198501121561041f57600080fd5b6004356001600160a01b03808216821461043857600080fd5b90935060243590808216821461044d57600080fd5b50929492935050604435919050565b600060206003198301121561047057600080fd5b6004356001600160a01b038116811461048857600080fd5b92915050565b6000806040600319840112156104a357600080fd5b6004356001600160a01b0380821682146104bc57600080fd5b9092506024359080821682146104d157600080fd5b50919391925050565b6104e261052d565b600580546001600160a01b031981169091556040516000906001600160a01b038316907f8be0079c531659141344cd1fd0a4f28419497f9722a3daafe3b4186f6b6457e0908390a350565b6005546001600160a01b03163381146103795760405162461bcd60e51b815260206004820181905260248201527f4f776e61626c653a2063616c6c6572206973206e6f7420746865206f776e65726044820152606481fd5b61058d61052d565b6001600160a01b03818116806105f15760405162461bcd60e51b815260206004820152602660248201527f4f776e61626c653a206e6577206f776e657220697320746865207a65726f206160448201526564647265737360d01b6064820152608481fd5b6005548160018060a01b0319821617600555838382167f8be0079c531659141344cd1fd0a4f28419497f9722a3daafe3b4186f6b6457e06000604051a350505050565b601f8201601f1916810167ffffffffffffffff8111828210171561066857634e487b7160e01b600052604160045260246000fd5b6040525050565b604051600354600090600181811c908083168061068d57607f831692505b60208084108214156106ad57634e487b7160e01b86526022600452602486fd5b838752602087018280156106c857600181146106d957610722565b60ff19871682528282019750610722565b60036000527fc2575a0e9e593c00f959f8c92f12db2869c3395a3b0502d05e2516446f71f85b5b60005b8781101561071c57815484820152908601908401610703565b83019850505b5050505050505061073582820383610634565b5090565b604051600454600090600181811c908083168061075757607f831692505b602080841082141561077757634e487b7160e01b86526022600452602486fd5b838752602087018280156106c8576001811461079257610722565b60046000527f8a35acfbc15ff81a39ae7d344fd709f28e8600b4aa8c65c6b64bfe7fe36bd19b610700565b6001600160a01b0316600090815260208190526040902090565b6001600160a01b039190911660009081526020919091526040902090565b610800828233610a3a565b506001919050565b610800828233610b03565b6001600160a01b03811660009081526001602052604081206108369033906107d7565b54600019811461089a578481101561088d5760405162461bcd60e51b815260206004820152601d60248201527f45524332303a20696e73756666696369656e7420616c6c6f77616e63650000006044820152606481fd5b61089a8582033385610b03565b506108a6848484610a3a565b5060019392505050565b634e487b7160e01b600052601160045260246000fd5b600082198211156108d9576108d96108b0565b500190565b336000526001602052610800610902836108fc8460406000206107d7565b546108c6565b8233610b03565b33600052600160205260006109228260406000206107d7565b548381101561097e5760405162461bcd60e51b815260206004820152602560248201527f45524332303a2064656372656173656420616c6c6f77616e63652062656c6f77604482015264207a65726f60d81b6064820152608481fd5b6108a68482038433610b03565b806103795760405162461bcd60e51b815260206004820152602360248201527f45524332303a207472616e7366657220746f20746865207a65726f206164647260448201526265737360e81b6064820152608481fd5b806103795760405162461bcd60e51b815260206004820152602660248201527f45524332303a207472616e7366657220616d6f756e7420657863656564732062604482015265616c616e636560d01b6064820152608481fd5b6001600160a01b03818116610a9c5760405162461bcd60e51b815260206004820152602560248201527f45524332303a207472616e736665722066726f6d20746865207a65726f206164604482015264647265737360d81b6064820152608481fd5b610aa9818416151561098b565b50610ab3816107bd565b54610ac0848210156109e1565b838103610acc836107bd565b5550610ad7826107bd565b8054840190556040518381528282600080516020610d8483398151915283602081015b0384a350505050565b6001600160a01b03818116610b635760405162461bcd60e51b8152602060048201526024808201527f45524332303a20617070726f76652066726f6d20746865207a65726f206164646044820152637265737360e01b6064820152608481fd5b808316610bba5760405162461bcd60e51b815260206004820152602260248201527f45524332303a20617070726f766520746f20746865207a65726f206164647265604482015261737360f01b6064820152608481fd5b5082610bde83610329846001600160a01b0316600090815260016020526040902090565b5560405183815282827f8c5be1e5ebec7d5bd14f71427d1e84f3dd0314c0f7b2291e5b200ac8c7c3b9258360208101610afa565b610c1a61052d565b6001600160a01b038116610c6d5760405162461bcd60e51b815260206004820152601f60248201527f45524332303a206d696e7420746f20746865207a65726f2061646472657373006044820152606481fd5b610c79826002546108c6565b600255610c85816107bd565b805483019055604051828152816000600080516020610d84833981519152602084a3505050565b336000526000602052600060406000205483811015610d705780841015610cd557610cd56108b0565b808403610ce061052d565b6001600160a01b038416610d335760405162461bcd60e51b815260206004820152601f60248201527f45524332303a206d696e7420746f20746865207a65726f2061646472657373006044820152606481fd5b610d3f816002546108c6565b600255610d4b846107bd565b805482019055604051818152846000600080516020610d84833981519152602084a350505b50610d7c838333610a3a565b509091905056feddf252ad1be2c89b69c2b068fc378daa952ba7f163c4a11628f55a4df523b3efa36469706673582212203c5621a316bd46f37c15f0a3e546293a23041eadce02a874ce3c89e32fce2b046c6578706572696d656e74616cf564736f6c63430008090041",
  "linkReferences": {},
  "deployedLinkReferences": {}
}