{
  "_format": "hh-sol-artifact-1",
  "contractName": "EHR",
  "sourceName": "contracts/EHR.sol",
  "abi": [
    {
      "inputs": [
        {
          "internalType": "string",
          "name": "_url",
          "type": "string"
        },
        {
          "internalType": "string",
          "name": "_type",
          "type": "string"
        },
        {
          "internalType": "string",
          "name": "_description",
          "type": "string"
        }
      ],
      "name": "addDocument",
      "outputs": [],
      "stateMutability": "nonpayable",
      "type": "function"
    },
    {
      "inputs": [
        {
          "internalType": "address",
          "name": "user",
          "type": "address"
        }
      ],
      "name": "allow",
      "outputs": [],
      "stateMutability": "nonpayable",
      "type": "function"
    },
    {
      "inputs": [
        {
          "internalType": "string",
          "name": "_patientName",
          "type": "string"
        },
        {
          "internalType": "address",
          "name": "_patientAddress",
          "type": "address"
        },
        {
          "internalType": "string",
          "name": "_docName",
          "type": "string"
        },
        {
          "internalType": "address",
          "name": "_docAddress",
          "type": "address"
        },
        {
          "internalType": "string",
          "name": "_description",
          "type": "string"
        },
        {
          "internalType": "string",
          "name": "_prescribingDoctor",
          "type": "string"
        },
        {
          "internalType": "string",
          "name": "_medicineDosage",
          "type": "string"
        }
      ],
      "name": "createPrescription",
      "outputs": [],
      "stateMutability": "nonpayable",
      "type": "function"
    },
    {
      "inputs": [
        {
          "internalType": "address",
          "name": "user",
          "type": "address"
        }
      ],
      "name": "disallow",
      "outputs": [],
      "stateMutability": "nonpayable",
      "type": "function"
    },
    {
      "inputs": [
        {
          "internalType": "address",
          "name": "_user",
          "type": "address"
        }
      ],
      "name": "displayDocument",
      "outputs": [
        {
          "components": [
            {
              "internalType": "string",
              "name": "documentURL",
              "type": "string"
            },
            {
              "internalType": "string",
              "name": "documenType",
              "type": "string"
            },
            {
              "internalType": "string",
              "name": "description",
              "type": "string"
            },
            {
              "internalType": "uint256",
              "name": "uploadedAt",
              "type": "uint256"
            }
          ],
          "internalType": "struct EHR.Documents[]",
          "name": "",
          "type": "tuple[]"
        }
      ],
      "stateMutability": "view",
      "type": "function"
    },
    {
      "inputs": [
        {
          "internalType": "address",
          "name": "_user",
          "type": "address"
        }
      ],
      "name": "displayPrescription",
      "outputs": [
        {
          "components": [
            {
              "internalType": "string",
              "name": "patientName",
              "type": "string"
            },
            {
              "internalType": "address",
              "name": "patientAddress",
              "type": "address"
            },
            {
              "internalType": "string",
              "name": "docName",
              "type": "string"
            },
            {
              "internalType": "address",
              "name": "docAddress",
              "type": "address"
            },
            {
              "internalType": "string",
              "name": "description",
              "type": "string"
            },
            {
              "internalType": "string",
              "name": "medicineDosage",
              "type": "string"
            },
            {
              "internalType": "string",
              "name": "prescribingDoctor",
              "type": "string"
            },
            {
              "internalType": "uint256",
              "name": "createdAt",
              "type": "uint256"
            }
          ],
          "internalType": "struct EHR.Prescription[]",
          "name": "",
          "type": "tuple[]"
        }
      ],
      "stateMutability": "view",
      "type": "function"
    },
    {
      "inputs": [],
      "name": "sharedAccess",
      "outputs": [
        {
          "components": [
            {
              "internalType": "address",
              "name": "user",
              "type": "address"
            },
            {
              "internalType": "bool",
              "name": "access",
              "type": "bool"
            }
          ],
          "internalType": "struct EHR.Access[]",
          "name": "",
          "type": "tuple[]"
        }
      ],
      "stateMutability": "view",
      "type": "function"
    }
  ],
  "bytecode": "0x6080604052341561000f57600080fd5b6111bc8061001f608039806080f3fe6040608081526004361061017d576000803560e01c632350f40d8114610066576336a8915b811461009457634f56e85c81146100ba57638de84b8c81146100ef5763a9ed9cb881146101175763c924b47681146101375763ff9913e8811461015f5761017a565b3415610070578182fd5b610079366102db565b61008881838587898b8d6109fa565b50505050505050818351f35b341561009e578182fd5b6100a7366103be565b6100b2818385610883565b505050818351f35b34156100c4578182fd5b6100cd36610445565b6100de6100d9336106ec565b6110e5565b8351806100eb838361045a565b0381f35b34156100f9578182fd5b61010a610105366104b4565b610ebb565b8351806100eb8383610533565b3415610121578182fd5b61013261012d366104b4565b610d4d565b818351f35b3415610141578182fd5b61015261014d366104b4565b610f9a565b8351806100eb83836105df565b3415610169578182fd5b610132610175366104b4565b610c10565b50505b50600080fd5b634e487b7160e01b600052604160045260246000fd5b608081018181106001600160401b03821117156101b8576101b8610183565b60405250565b601f8201601f191681016001600160401b03811182821017156101e3576101e3610183565b6040525050565b604080519081016001600160401b038111828210171561020c5761020c610183565b60405290565b60405161010081016001600160401b038111828210171561020c5761020c610183565b600082601f83011261024657600080fd5b81356001600160401b0381111561025f5761025f610183565b604051610276601f8301601f1916602001826101be565b81815284602083860101111561028b57600080fd5b816020850160208301376000918101602001919091529392505050565b6024356001600160a01b03811681146102c057600080fd5b90565b6064356001600160a01b03811681146102c057600080fd5b600080808080808060e0600319890112156102f557600080fd5b600480356001600160401b038082111561030e57600080fd5b61031a8b838501610235565b99506103246102a8565b985060443591508082111561033857600080fd5b6103448b838501610235565b975061034e6102c3565b965060843591508082111561036257600080fd5b61036e8b838501610235565b955060a43591508082111561038257600080fd5b61038e8b838501610235565b945060c4359150808211156103a257600080fd5b506103af8a828401610235565b92505050919395979092949650565b600080806060600319850112156103d457600080fd5b6004356001600160401b03808211156103ec57600080fd5b6103f98683600401610235565b945060243591508082111561040d57600080fd5b61041a8683600401610235565b935060443591508082111561042e57600080fd5b5061043c8582600401610235565b93959294505050565b60006003198201121561045757600080fd5b50565b602080825282518282018190526000919060409081850190868401855b828110156104a757815180516001600160a01b031685528601511515868501529284019290850190600101610477565b5091979650505050505050565b60006020600319830112156104c857600080fd5b6004356001600160a01b03811681146104e057600080fd5b92915050565b6000815180845260005b8181101561050c576020818501810151868301820152016104f0565b8181111561051e576000602083870101525b50601f01601f19169290920160200192915050565b60006020808301818452808551808352604092508286019150828160051b87010184880160005b838110156105d157888303603f19018552815180516080808652610580818701836104e6565b915050888201518582038a87015261059882826104e6565b91505087820151858203898701526105b082826104e6565b6060938401519690930195909552509487019492509086019060010161055a565b509098975050505050505050565b60006020808301818452808551808352604092508286019150828160051b87010184880160005b838110156105d157888303603f190185528151805161010080865261062d818701836104e6565b915050888201516106488a8701826001600160a01b03169052565b50878201518582038987015261065e82826104e6565b91505060608083015161067b828801826001600160a01b03169052565b50506080808301518683038288015261069483826104e6565b9250505060a080830151868303828801526106af83826104e6565b9250505060c080830151868303828801526106ca83826104e6565b60e0948501519790940196909652505094870194925090860190600101610606565b6001600160a01b0316600090815260036020526040902090565b6001600160a01b039190911660009081526020919091526040902090565b634e487b7160e01b600052603260045260246000fd5b600181811c9082168061074e57607f821691505b6020821081141561076f57634e487b7160e01b600052602260045260246000fd5b50919050565b601f8211156107bf57600081815260208120601f850160051c8101602086101561079c5750805b601f850160051c820191505b818110156107bb578281556001016107a8565b5050505b505050565b81516001600160401b038111156107dd576107dd610183565b6107f1816107eb845461073a565b84610775565b602080601f831160018114610826576000841561080e5750858301515b600019600386901b1c1916600185901b1785556107bb565b600085815260208120601f198616915b8281101561085557888601518255948401946001909101908401610836565b50858210156108735787850151600019600388901b60f8161c191681555b5050505050600190811b01905550565b60405161088f81610199565b818152602080820184815260408301868152606084014281526000338152808552604081208054600160401b81106108c9576108c9610183565b60018082018084558083106108e0576108e0610724565b5091835286832097518051909860029290921b909101916001600160401b0382111561090e5761090e610183565b6109228261091c855461073a565b85610775565b87601f8311600181146109525785841561093c57508a8201515b600019600386901b1c191684841b1785556109a8565b600085815260209020601f19851690875b82811015610980578d8501518255938c0193908501908c01610963565b508582101561099e578c840151600019600388901b60f8161c191681555b50508284841b0185555b50506109b787518285016107c4565b50506109c78451600283016107c4565b8251600382015550505050505050505050565b80546001600160a01b0319166001600160a01b0392909216919091179055565b60405161010081018181106001600160401b0382111715610a1d57610a1d610183565b80604052508181526020810160018060a01b0380851682526040830186815260608401828916815260808501925089835260a085018c815260c086018c815260e0870142815233600052600160205260406000208054600160401b8110610a8657610a86610183565b60018101808355808210610a9c57610a9c610724565b5081600052602060002091508060031b8201915050610abc8951826107c4565b610ad9610ad089516001600160a01b031690565b600183016109da565b610ae78651600283016107c4565b610b04610afb86516001600160a01b031690565b600383016109da565b610b128751600483016107c4565b610b208451600583016107c4565b610b2e8351600683016107c4565b8151600782015550505050505050505050505050505050565b60008082548410610b5a57610b5a610724565b505060009081526020812090910191565b8054600160401b8110610b8057610b80610183565b600181018255610b908183610b47565b91508115610bae57634e487b7160e01b600052600060045260246000fd5b8351610bc3906001600160a01b0316826109da565b60209390930151835460ff60a01b191690151560a01b60ff60a01b16179092555050565b6000600019821415610c0957634e487b7160e01b600052601160045260246000fd5b5060010190565b610c47610c3a82610c35336001600160a01b0316600090815260026020526040902090565b610706565b805460ff19166001179055565b610c73610c6c82610c35336001600160a01b0316600090815260046020526040902090565b5460ff1690565b8015610cf45760005b610c85336106ec565b548110610c9157505050565b610ca381610c9e336106ec565b610b47565b50546001600160a01b0390811690848116821415610ce257610cc883610c9e336106ec565b50610ce081805460ff60a01b1916600160a01b179055565b505b5050610ced81610be7565b9050610c7c565b610cfd336106ec565b610d056101ea565b6001600160a01b038416815260016020820152610d228183610b6b565b5050610d49610c3a83610c35336001600160a01b0316600090815260046020526040902090565b5050565b336000526002602052610d64816040600020610706565b805460ff1916905560005b610d78336106ec565b548110610d83575050565b610d9081610c9e336106ec565b50546001600160a01b0390811690838116821415610dc257610db583610c9e336106ec565b50805460ff60a01b191690555b5050610dcd81610be7565b9050610d6f565b806104575760405162461bcd60e51b8152602060048201526015602482015274596f7520646f6e277420686176652061636365737360581b6044820152606481fd5b60006001600160401b03821115610e2f57610e2f610183565b5060051b60200190565b6040518154600090610e4a8161073a565b80845260018281168015610e655760018114610e7a57610eab565b60ff1984166020870152604086019450610eab565b8660005260208060002060005b85811015610ea2578154898201840152908401908201610e87565b88019091019550505b5050505061076f828203836101be565b60006001600160a01b03821633811480610eed5781600052600260205260ff610ee8336040600020610706565b541690505b610ef681610dd4565b50506000338152602081815260408083208054610f1281610e16565b8351610f1e82826101be565b8281529286525083852091848101905b82871015610f8e578451610f4181610199565b610f4a85610e39565b8152610f5860018601610e39565b87820152610f6860028601610e39565b818701526003850154606082015282526001969096019560049093019290850190610f2e565b98975050505050505050565b60006001600160a01b03821633811480610fcc5781600052600260205260ff610fc7336040600020610706565b541690505b610fd581610dd4565b505033600052600160208181526040806000208054610ff381610e16565b8351610fff82826101be565b82815260009384528584209386820192505b838110156110d857611021610212565b61102a86610e39565b81526110516110428a8801546001600160a01b031690565b6001600160a01b0316828a0152565b61105d60028701610e39565b8782015261108861107860038801546001600160a01b031690565b6001600160a01b03166060830152565b61109460048701610e39565b60808201526110a560058701610e39565b60a08201526110b660068701610e39565b60c0820152600786015460e08201528352600890940193918601918701611011565b5098975050505050505050565b600081546110f281610e16565b6040805161110083826101be565b838152600086815260208082209296508087019450905b8581101561116d5783518481018181106001600160401b038211171561113f5761113f610183565b855283546001600160a01b038116825260a01c60ff1615158382015285529381019360019283019201611117565b50505050505091905056fea36469706673582212201be8586492c6b0f1735d9a0fcbc499644c59aa4d846dcf5637d908dc40b4c1e96c6578706572696d656e74616cf564736f6c63430008090041",
  "linkReferences": {},
  "deployedLinkReferences": {}
}